:020000040800F2
:1000000000500020951E0008D91E0008974E0008D9
:10001000D91E0008D91E0008D91E000800000000E3
:10002000000000000000000000000000D91E0008D1
:10003000D91E000800000000D91E0008D91E0008C3
:10004000D91E0008D91E0008D91E0008D91E0008B4
:10005000D91E0008D91E0008D91E0008D91E0008A4
:10006000D91E0008D91E0008D91E0008D91E000894
:10007000D91E0008D91E0008D91E0008D91E000884
:10008000D91E0008D91E0008D91E0008D91E000874
:10009000D91E0008D91E0008D91E0008D91E000864
:1000A000D91E0008D91E0008D91E0008D91E000854
:1000B000D91E0008D91E0008D91E0008D91E000844
:1000C000D91E0008D91E0008D91E0008D91E000834
:1000D000D91E0008D91E0008D91E0008D91E000824
:1000E000D91E0008D91E0008D91E00080000000013
:1000F0000000000000000000000000000000000000
:1001000000000000000000005FF808F110B5054C89
:10011000237833B9044B13B10448AFF300800123B3
:10012000237010BD68040020000000004450000847
:10013000084B10B51BB108480849AFF300800848C8
:10014000036803B910BD074B002BFBD0BDE810407E
:10015000184700BF00000000445000086C04002055
:10016000640400200000000080B586B000AF786015
:10017000786802F07FFF7B68B3F1804F04D10120E3
:10018000012100F0DBFE12E07B68194A934204D1A2
:100190000220012100F0D2FE09E07B68154A93425B
:1001A00004D10420012100F0C9FE00E0FEE7002395
:1001B000FB81114B1B68114AA2FB03239B0C9BB2D2
:1001C000013B9BB2BB8142F20F733B8200237B82D7
:1001D00000233B7507F10C037868194603F060F8BB
:1001E0007868012103F024FC1837BD4680BD00BFAC
:1001F00000040040000800401400002083DE1B4380
:1002000080B483B000AF78607B68064A136000BF9B
:10021000044B1B68002BFBD10C37BD465DF8047BFB
:10022000704700BF8404002080B400AF044B1B68FB
:10023000013B034A1360BD465DF8047B704700BF75
:100240008404002080B483B000AF786039607B689C
:1002500000229A843B68033B3B6000BF7B689B8C19
:100260009BB21A463B689A42F8D90C37BD465DF8F6
:10027000047B704780B582B000AF7860396004E0DD
:1002800078684FF47A71FFF7DDFF3B685A1E3A60D9
:10029000002BF5D10837BD4680BD00BF80B582B0C8
:1002A00000AF1020012100F02BFE1023FB7103236F
:1002B000BB714FF40053BB803B1D0348194600F04F
:1002C000CFF80837BD4680BD0010014080B582B030
:1002D00000AF0420012100F013FE1023FB71032363
:1002E000BB710223BB803B1D0548194600F0B8F8DE
:1002F00003480221002200F0F3F90837BD4680BD13
:100300000008014080B582B000AF1020012100F04C
:10031000F7FD1023FB710323BB714FF44073BB80C7
:100320003B1D0348194600F09BF80837BD4680BDC9
:100330000010014080B582B000AF0420012100F020
:10034000DFFD0423FB710323BB710123BB803B1D35
:100350000348194600F084F80837BD4680BD00BF49
:100360000008014080B582B000AF78607B682F4AFA
:10037000934208D10420012100F0FEFD0420002159
:1003800000F0FAFD4EE07B68294A934208D108202C
:10039000012100F0F1FD0820002100F0EDFD41E019
:1003A0007B68244A934208D11020012100F0E4FD2B
:1003B0001020002100F0E0FD34E07B681E4A9342EB
:1003C00008D12020012100F0D7FD2020002100F0DD
:1003D000D3FD27E07B68194A934208D140200121D0
:1003E00000F0CAFD4020002100F0C6FD1AE07B6845
:1003F000134A934208D18020012100F0BDFD8020E6
:10040000002100F0B9FD0DE07B680E4A934209D14E
:100410004FF48070012100F0AFFD4FF48070002197
:1004200000F0AAFD0837BD4680BD00BF00080140AE
:10043000000C014000100140001401400018014070
:10044000001C01400020014080B500AF01200121C7
:1004500000F092FD0120002100F08EFD80BD00BF64
:1004600080B489B000AF786039600023FB6100235D
:100470003B610023BB610023FB6000237B61002301
:10048000BB603B68DB7803F00F03FB613B68DB7804
:1004900003F01003002B05D03B689B781A46FB69DC
:1004A0001343FB613B681B88DBB2002B44D07B68A5
:1004B0001B687B610023BB6138E0BB69012202FA43
:1004C00003F3FB603B681B881A46FB6813403B61E3
:1004D0003A69FB689A4226D1BB699B00FB60FB68C6
:1004E0000F2202FA03F3BB60BB68DB437A69134057
:1004F0007B61FB68FA6902FA03F37A6913437B6153
:100500003B68DB78282B05D1BB6901229A407B68C8
:100510005A6108E03B68DB78482B04D1BB690122B3
:100520009A407B681A61BB690133BB61BB69072BC9
:10053000C3D97B687A691A603B681B88FF2B4AD94C
:100540007B685B687B610023BB613EE0BB6908336D
:100550001A4601239340FB603B681B881A46FB68E0
:1005600013403B613A69FB689A422BD1BB699B00FF
:10057000FB60FB680F2202FA03F3BB60BB68DB433E
:100580007A6913407B61FB68FA6902FA03F37A69BE
:1005900013437B613B68DB78282B07D1BB690833A9
:1005A0001A46012303FA02F27B685A613B68DB7842
:1005B000482B07D1BB6908331A46012303FA02F21C
:1005C0007B681A61BB690133BB61BB69072BBDD96D
:1005D0007B687A695A602437BD465DF8047B7047B2
:1005E00080B483B000AF78607B684FF6FF721A80EA
:1005F0007B6802229A707B680422DA700C37BD4651
:100600005DF8047B704700BF80B485B000AF7860B0
:100610000B467B800023FB737B689A687B881340C2
:10062000002B02D00123FB7301E00023FB73FB7B53
:1006300018461437BD465DF8047B704780B483B01C
:1006400000AF78607B689B689BB218460C37BD464C
:100650005DF8047B704700BF80B485B000AF786060
:100660000B467B800023FB737B68DA687B88134032
:10067000002B02D00123FB7301E00023FB73FB7B03
:1006800018461437BD465DF8047B704780B483B0CC
:1006900000AF78607B68DB689BB218460C37BD46BC
:1006A0005DF8047B704700BF80B483B000AF786012
:1006B0000B467B807A887B681A610C37BD465DF8F3
:1006C000047B704780B483B000AF78600B467B80BA
:1006D0007A887B685A610C37BD465DF8047B7047A9
:1006E00080B483B000AF78600B467B8013467B708C
:1006F0007B78002B03D07A887B681A6102E07A88C5
:100700007B685A610C37BD465DF8047B704700BFBB
:1007100080B483B000AF78600B467B807A887B68BA
:10072000DA600C37BD465DF8047B704780B485B055
:1007300000AF78600B467B804FF48033FB607B8892
:10074000FA681343FB607B68FA689A617A887B6871
:100750009A617B68FA689A617B689B69FB607B6839
:100760009B69FB601437BD465DF8047B704700BF92
:1007700080B485B000AF03460A46FB711346BB71D7
:100780000023FB600C4B1B68FB60FA684FF680731C
:100790001340FB60FB791B01FA681343FB60BB79D4
:1007A000FA681343FB60044AFB6813601437BD46C4
:1007B0005DF8047B704700BF0000014080B483B047
:1007C00000AF0346FB71044AFB7913600C37BD464A
:1007D0005DF8047B704700BF1C00204280B487B0E6
:1007E00000AF78600B46FB7000233B610023FB6089
:1007F00000237B610023BB607B68002B03DA2E4B58
:10080000DB697B6102E02C4B5B687B617B6803F4F6
:1008100070231B0CBB607B689BB23B617B6803F45D
:100820004013B3F5401F0AD17B6923F070637B61ED
:10083000214A214B5B6823F07063536021E07B68A1
:1008400003F48013002B0ED0BB68032202FA03F3DB
:10085000FB60FB68DB437A6913407B617B6943F093
:1008600070637B610DE07B685B0D1B011A463B6981
:100870009340DB437A6913407B617B6943F070638B
:100880007B61FB78002B08D07B685B0D1B011A464F
:100890003B6993407A6913437B617B68002B03DAE1
:1008A000054A7B69D36102E0034A7B6953601C37C8
:1008B000BD465DF8047B70470000014090B484B0F1
:1008C00000AF03460A46FB711346BB710023FB6071
:1008D000BB7903F003039B000F2202FA03F3FB60D2
:1008E0001649BB799B08DBB21846144ABB799B08B2
:1008F000DBB2023352F82320FB68DB431A40831C2F
:1009000041F823200D48BB799B08DBB21C460B4AFB
:10091000BB799B08DBB2023352F82320F979BB790B
:1009200003F003039B0001FA03F31A43A31C40F8EE
:1009300023201037BD4690BC704700BF0000014027
:1009400080B483B000AF7860034A7B6813600C37D3
:10095000BD465DF8047B7047DC00204280B400AFE8
:10096000134A134B1B6843F0010313601049104BEB
:100970005A68104B13404B600D4A0D4B1B6823F017
:10098000847323F480331360094A094B1B6823F4F2
:1009900080231360064A064B5B6823F4FE03536012
:1009A000034B4FF41F029A60BD465DF8047B70470D
:1009B000001002400000FFF880B483B000AF786000
:1009C000134A134B1B6823F480331360104A104BF7
:1009D0001B6823F4802313607B68B3F5803F03D04A
:1009E000B3F5802F07D00DE0094A094B1B6843F48B
:1009F0008033136006E0064A054B1B6843F4A023CE
:100A0000136000BF0C37BD465DF8047B704700BF24
:100A10000010024080B582B000AF00233B6000238D
:100A2000FB710023BB71312000F012FB0346BB7148
:100A30003B6801333B603B68B3F5A06F02D0BB79E4
:100A4000002BF0D0312000F003FB0346002B02D036
:100A50000123FB7101E00023FB71FB791846083785
:100A6000BD4680BD80B485B000AF0346FB71002356
:100A7000FB600A4B1B68FB60FB6823F0F803FB601C
:100A8000FB79DB00FA681343FB60044AFB681360E0
:100A90001437BD465DF8047B704700BF001002406C
:100AA00080B483B000AF0346FB71044AFB79136046
:100AB0000C37BD465DF8047B704700BF0000424222
:100AC00080B485B000AF786039600023FB600A4BCA
:100AD0005B68FB60FB6823F47C13FB607A683B680F
:100AE0001343FA681343FB60034AFB6853601437EF
:100AF000BD465DF8047B70470010024080B483B0AF
:100B000000AF0346FB71044AFB7913600C37BD4606
:100B10005DF8047B704700BF6000424280B485B03E
:100B200000AF78600023FB60094B5B68FB60FB68EB
:100B300023F00303FB60FA687B681343FB60044AFD
:100B4000FB6853601437BD465DF8047B704700BFF7
:100B50000010024080B400AF054B5B68DBB203F0CD
:100B60000C03DBB21846BD465DF8047B704700BF3E
:100B70000010024080B485B000AF78600023FB60B5
:100B8000094B5B68FB60FB6823F0F003FB60FA68CD
:100B90007B681343FB60044AFB6853601437BD460F
:100BA0005DF8047B704700BF0010024080B485B040
:100BB00000AF78600023FB60094B5B68FB60FB685B
:100BC00023F4E063FB60FA687B681343FB60044A2C
:100BD000FB6853601437BD465DF8047B704700BF67
:100BE0000010024080B485B000AF78600023FB6045
:100BF000094B5B68FB60FB6823F46053FB607B6818
:100C0000DB00FA681343FB60034AFB685360143748
:100C1000BD465DF8047B70470010024080B483B08D
:100C200000AF03460A46FB711346BB71BB79002B2C
:100C300008D00C490B4B1B78DAB2FB791343DBB2BB
:100C40000B7009E00749074B1B78DAB2FB79DB43ED
:100C5000DBB21340DBB20B700C37BD465DF8047B92
:100C6000704700BF0910024080B483B000AF7860C5
:100C7000034A7B6813600C37BD465DF8047B704700
:100C8000D800424280B485B000AF78600023FB609A
:100C9000094B5B68FB60FB6823F44043FB60FA6828
:100CA0007B681343FB60044AFB6853601437BD46FE
:100CB0005DF8047B704700BF0010024080B483B031
:100CC00000AF0346FB710C4B00221A700A4B002246
:100CD0001A70FB79012B02D0042B04D007E0064BDD
:100CE00001221A7003E0044B05221A7000BF0C3772
:100CF000BD465DF8047B70472010024080B483B08D
:100D000000AF0346FB71044AFB7913600C37BD4604
:100D10005DF8047B704700BF8004424280B483B01A
:100D200000AF78600549054B1A6A7B6813430B6274
:100D30000C37BD465DF8047B704700BF00100240D1
:100D400080B483B000AF0346FB71044AFB791360A3
:100D50000C37BD465DF8047B704700BF3C0442423F
:100D600080B487B000AF786000237B6100233B61D3
:100D70000023FB600023BB604D4B5B6803F00C035A
:100D80007B617B69042B07D0082B09D0002B34D161
:100D90007B68484A1A6034E07B68464A1A6030E053
:100DA000434B5B6803F470133B61414B5B6803F496
:100DB0008033FB603B699B0C02333B61FB68002B7B
:100DC00006D13B693C4A02FB03F27B681A6013E0E0
:100DD000374B5B6803F40033002B06D03B69364A7F
:100DE00002FB03F27B681A6006E03B69314A02FBB2
:100DF00003F27B681A6004E003E07B682D4A1A6006
:100E000000BF2B4B5B6803F0F0037B617B691B0920
:100E10007B612A4A7B6913441B78DBB2BB607B6829
:100E20001A68BB68DA407B685A60214B5B6803F440
:100E3000E0637B617B691B0A7B61204A7B69134409
:100E40001B78DBB2BB607B685A68BB68DA407B68A2
:100E50009A60174B5B6803F460537B617B69DB0A24
:100E60007B61164A7B6913441B78DBB2BB607B68ED
:100E70005A68BB68DA407B68DA600D4B5B6803F444
:100E800040437B617B699B0B7B610D4A7B6913440B
:100E90001B78DBB2BB607B68DA68BB68B2FBF3F23D
:100EA0007B681A611C37BD465DF8047B704700BF44
:100EB0000010024000127A0000093D0000000020EE
:100EC0001000002080B483B000AF78600B46FB7048
:100ED000FB78002B06D00949084B5A697B681343FD
:100EE0004B6106E00549054B5A697B68DB431340BB
:100EF0004B610C37BD465DF8047B70470010024023
:100F000080B483B000AF78600B46FB70FB78002B99
:100F100006D00949084B9A697B6813438B6106E048
:100F20000549054B9A697B68DB4313408B610C379D
:100F3000BD465DF8047B70470010024080B483B06A
:100F400000AF78600B46FB70FB78002B06D0094998
:100F5000084BDA697B681343CB6106E00549054B12
:100F6000DA697B68DB431340CB610C37BD465DF823
:100F7000047B70470010024080B483B000AF7860FB
:100F80000B46FB70FB78002B06D00949084BDA684A
:100F90007B681343CB6006E00549054BDA687B6844
:100FA000DB431340CB600C37BD465DF8047B7047D4
:100FB0000010024080B483B000AF78600B46FB7035
:100FC000FB78002B06D00949084B1A697B6813434C
:100FD0000B6106E00549054B1A697B68DB4313404A
:100FE0000B610C37BD465DF8047B70470010024072
:100FF00080B483B000AF0346FB71044AFB791360F1
:101000000C37BD465DF8047B704700BF4004424288
:1010100080B483B000AF0346FB71044AFB791360D0
:101020000C37BD465DF8047B704700BF4C00424260
:1010300080B483B000AF0346FB71044AFB791370A0
:101040000C37BD465DF8047B704700BF07100240B7
:1010500080B487B000AF0346FB710023FB60002320
:101060007B610023FB74FB795B09DBB2FB60FB68EF
:10107000012B03D1124B1B687B6109E0FB68022B3B
:1010800003D10F4B1B6A7B6102E00D4B5B6A7B61F6
:10109000FB7903F01F03FB60FB687A6922FA03F314
:1010A00003F00103002B02D00123FB7401E00023B5
:1010B000FB74FB7C18461C37BD465DF8047B70470B
:1010C0000010024080B400AF044A044B5B6A43F056
:1010D00080735362BD465DF8047B70470010024088
:1010E00080B485B000AF0346FB710023FB73094B4E
:1010F0009A68FB791340002B02D00123FB7301E0B7
:101100000023FB73FB7B18461437BD465DF8047B58
:10111000704700BF0010024080B483B000AF0346A8
:10112000FB71044AFB7913700C37BD465DF8047BF4
:10113000704700BF0A10024080B483B000AF7860EF
:101140007B681A684FF6FE7313407A6813607B68F9
:1011500000221A607B6800225A607B6800229A6035
:101160007B680022DA607B68434A934206D1434A97
:10117000424B5B6843F00F03536077E07B68404A63
:10118000934206D13D4A3D4B5B6843F0F003536008
:101190006CE07B683B4A934206D1384A374B5B6828
:1011A00043F47063536061E07B68374A934206D131
:1011B000324A324B5B6843F47043536056E07B68BD
:1011C000324A934206D12D4A2C4B5B6843F470237C
:1011D00053604BE07B682E4A934206D1274A274B47
:1011E0005B6843F47003536040E07B68294A934294
:1011F00006D1224A214B5B6843F07063536035E0AF
:101200007B68254A934206D1244A244B5B6843F00D
:101210000F0353602AE07B68214A934206D11F4A9C
:101220001E4B5B6843F0F00353601FE07B681D4A70
:10123000934206D1194A194B5B6843F470635360BB
:1012400014E07B68184A934206D1144A134B5B683A
:1012500043F47043536009E07B68144A934205D11C
:101260000E4A0E4B5B6843F4702353600C37BD4647
:101270005DF8047B704700BF080002400000024098
:101280001C0002403000024044000240580002406E
:101290006C0002408000024008040240000402404A
:1012A0001C0402403004024044040240580402403E
:1012B00080B485B000AF786039600023FB607B6844
:1012C0001B68FB60FB6823F4FF4323F07003FB60A3
:1012D0003B689A683B681B6A1A433B681B691A4360
:1012E0003B685B691A433B689B691A433B68DB694F
:1012F0001A433B685B6A1A433B689B6A1343FA686C
:101300001343FB607B68FA681A603B68DA687B68A5
:101310005A603B681A687B689A603B685A687B68C9
:10132000DA601437BD465DF8047B704780B483B043
:1013300000AF78607B6800221A607B6800225A60E8
:101340007B6800229A607B680022DA607B6800225A
:101350001A617B6800225A617B6800229A617B686F
:101360000022DA617B6800221A627B6800225A62DE
:101370007B6800229A620C37BD465DF8047B70479B
:1013800080B483B000AF78600B46FB70FB78002B15
:1013900006D07B681B6843F001027B681A6006E098
:1013A0007B681A684FF6FE7313407A6813600C3737
:1013B000BD465DF8047B704780B485B000AFF8602F
:1013C000B9601346FB71FB79002B06D0FB681A68E5
:1013D000BB681A43FB681A6006E0FB681A68BB68C2
:1013E000DB431A40FB681A601437BD465DF8047B86
:1013F000704700BF80B483B000AF78600B467B803D
:101400007A887B685A600C37BD465DF8047B70476C
:1014100080B483B000AF78607B685B689BB218468D
:101420000C37BD465DF8047B704700BF80B485B0C3
:1014300000AF78600023FB730023BB607B6803F080
:101440008053002B03D00C4B1B68BB6002E00B4B9E
:101450001B68BB60BA687B681340002B02D0012375
:10146000FB7301E00023FB73FB7B18461437BD467A
:101470005DF8047B704700BF00040240000002409A
:1014800080B483B000AF78607B6803F08053002B9A
:1014900003D0064A7B68536002E0054A7B685360CC
:1014A0000C37BD465DF8047B704700BF0004024066
:1014B0000000024080B485B000AF78600023FB7369
:1014C0000023BB607B6803F08053002B03D00C4BE0
:1014D0001B68BB6002E00B4B1B68BB60BA687B6893
:1014E0001340002B02D00123FB7301E00023FB73A8
:1014F000FB7B18461437BD465DF8047B704700BF80
:10150000000402400000024080B483B000AF786065
:101510007B6803F08053002B03D0064A7B6853603E
:1015200002E0054A7B6853600C37BD465DF8047BDA
:10153000704700BF000402400000024080B582B046
:1015400000AF78607B680D4A93420AD14FF40010D7
:101550000121FFF72FFD4FF400100021FFF72AFDB6
:1015600009E04FF480000121FFF724FD4FF48000D3
:101570000021FFF71FFD0837BD4680BD0054004025
:1015800080B58AB000AF786039600023FB84002307
:101590007B840423BB84574BFB617B689B88FB8463
:1015A000FB8C23F03F03FB8407F108031846FFF789
:1015B000D7FB3B69FB61FB694F4AA2FB03239B0CF2
:1015C0007B84FA8C7B8C1343FB847B68FA8C9A8037
:1015D0007B681B889BB223F001039AB27B681A8058
:1015E0000023FB843B681B68444A934215D83B6840
:1015F0001B685B00FA69B2FBF3F3BB84BB8C032B63
:1016000001D80423BB84FA8CBB8C1343FB847B8CF2
:1016100001339AB27B681A8440E03B68DB884BF662
:10162000FF72934209D13B681A6813465B0013446A
:10163000FA69B2FBF3F3BB840EE03B681A68134609
:101640009B0013449A001344FA69B2FBF3F3BB8482
:10165000BB8C43F48043BB84BB8CC3F30B03002BD4
:1016600003D1BB8C43F00103BB84BA8CFB8C1343C6
:101670009BB26FEA43436FEA5343FB847B8C4FF486
:10168000967202FB03F31E4A82FB03129211DB17D0
:10169000D31A9BB201339AB27B681A847B68FA8CA6
:1016A0009A837B681B889BB243F001039AB27B68E4
:1016B0001A807B681B88FB84FB8C23F4816323F0F6
:1016C0000203FB843B689A883B685B8913439AB2A8
:1016D000FB8C1343FB847B68FA8C1A803B689A89E5
:1016E0003B681B8913439AB27B681A812837BD4631
:1016F00080BD00BF00127A0083DE1B43A08601007C
:10170000D34D621080B483B000AF78607B6841F243
:1017100088321A607B6800229A807B684BF6FF72E1
:10172000DA807B6800221A817B6800225A817B68FC
:101730004FF480429A810C37BD465DF8047B7047B8
:1017400080B483B000AF78600B46FB70FB78002B51
:1017500008D07B681B889BB243F001039AB27B6878
:101760001A8007E07B681B889BB223F001039AB2C2
:101770007B681A800C37BD465DF8047B704700BF5C
:1017800080B483B000AF78600B46FB70FB78002B11
:1017900008D07B689B889BB243F400639AB27B6855
:1017A0009A8007E07B689B889BB223F400639AB21F
:1017B0007B689A800C37BD465DF8047B704700BF9C
:1017C00080B483B000AF78600B46FB70FB78002BD1
:1017D00008D07B689B889BB243F480539AB27B68A5
:1017E0009A8007E07B689B889BB223F480539AB26F
:1017F0007B689A800C37BD465DF8047B704700BF5C
:1018000080B483B000AF78600B46FB70FB78002B90
:1018100008D07B681B889BB243F480739AB27B68C4
:101820001A8007E07B681B889BB223F480739AB20E
:101830007B681A800C37BD465DF8047B704700BF9B
:1018400080B483B000AF78600B46FB70FB78002B50
:1018500008D07B681B889BB243F400739AB27B6804
:101860001A8007E07B681B889BB223F400739AB24E
:101870007B681A800C37BD465DF8047B704700BF5B
:1018800080B483B000AF78600B46FB70FB78002B10
:1018900008D07B681B889BB243F480639AB27B6854
:1018A0001A8007E07B681B889BB223F480639AB29E
:1018B0007B681A800C37BD465DF8047B704700BF1B
:1018C00080B485B000AF78600B46FB700023FB81CD
:1018D0007B689B89FB81FB8923F0FE03FB81FB78FE
:1018E0009BB203F0FE039AB2FB8913439BB2FB81C8
:1018F0007B68FA899A811437BD465DF8047B70478E
:1019000080B483B000AF78600B46FB70FB78002B8F
:1019100008D07B689B899BB243F001039AB27B6835
:101920009A8107E07B689B899BB223F001039AB2FE
:101930007B689A810C37BD465DF8047B704700BF19
:1019400080B483B000AF78600B46FB70FB78002B4F
:1019500008D07B681B889BB243F040039AB27B6837
:101960001A8007E07B681B889BB223F040039AB281
:101970007B681A800C37BD465DF8047B704700BF5A
:1019800080B483B000AF78600B467B8013467B70D9
:101990007B78002B08D07B689B889AB27B881343A6
:1019A0009AB27B689A8009E07B689B889AB27B88B0
:1019B000DB439BB213409AB27B689A800C37BD46DA
:1019C0005DF8047B704700BF80B483B000AF7860DF
:1019D0000B46FB70FB789AB27B681A820C37BD46C7
:1019E0005DF8047B704700BF80B483B000AF7860BF
:1019F0007B681B8A9BB2DBB218460C37BD465DF88C
:101A0000047B704780B483B000AF78600B46FB70F6
:101A10001346BB70BB78002B04D0FB7843F0010366
:101A2000FB7003E0FB7823F00103FB70FB789AB2B4
:101A30007B681A820C37BD465DF8047B704700BF97
:101A400080B485B000AF78600B46FB700023FB606C
:101A50007B68FB60FA78FB681344FB60FB681B88BB
:101A60009BB218461437BD465DF8047B704700BF33
:101A700080B483B000AF78600B46FB70FB78002B1E
:101A80000AD07B681B889BB26FEA43436FEA5343DB
:101A90009AB27B681A8007E07B681B889BB2C3F30D
:101AA0000E039AB27B681A800C37BD465DF8047B42
:101AB000704700BF80B483B000AF78600B467B8076
:101AC0007B88B3F5006F08D17B681B889BB243F419
:101AD00000639AB27B681A8007E07B681B889BB220
:101AE00023F400639AB27B681A800C37BD465DF818
:101AF000047B704780B483B000AF78600B467B8076
:101B00007B88B3F5005F08D17B681B889BB243F4E8
:101B100000539AB27B681A8007E07B681B889BB2EF
:101B200023F400539AB27B681A800C37BD465DF8E7
:101B3000047B704780B483B000AF78600B46FB70C5
:101B4000FB78002B08D07B681B889BB243F4805342
:101B50009AB27B681A8007E07B681B889BB223F4EB
:101B600080539AB27B681A800C37BD465DF8047BBF
:101B7000704700BF80B483B000AF78600B467B80B5
:101B80007B88B3F5006F08D17B681B889BB243F458
:101B900000639AB27B681A8007E07B681B889BB25F
:101BA00023F400639AB27B681A800C37BD465DF857
:101BB000047B704780B483B000AF78600B46FB7045
:101BC000FB78002B08D07B681B889BB243F0200376
:101BD0009AB27B681A8007E07B681B889BB223F06F
:101BE00020039AB27B681A800C37BD465DF8047BEF
:101BF000704700BF80B483B000AF78607B681B8BF8
:101C00009BB21B0A9BB2DBB218460C37BD465DF88F
:101C1000047B704780B483B000AF78600B46FB70E4
:101C2000FB78002B08D07B681B889BB243F0100325
:101C30009AB27B681A8007E07B681B889BB223F00E
:101C400010039AB27B681A800C37BD465DF8047B9E
:101C5000704700BF80B483B000AF78600B46FB7064
:101C6000FB78002B08D17B681B889BB243F0800374
:101C70009AB27B681A8007E07B681B889BB223F0CE
:101C800080039AB27B681A800C37BD465DF8047BEE
:101C9000704700BF80B483B000AF78600B467B8094
:101CA0007B88B3F5804F08D07B689B8B9BB223F475
:101CB00080439AB27B689A8307E07B689B8B9BB2D8
:101CC00043F480439AB27B689A830C37BD465DF833
:101CD000047B704780B487B000AF78603960002320
:101CE0003B610023FB600023BB600023FB757B6826
:101CF0009B8A9BB2FB607B681B8B9BB2BB60BB6803
:101D00001B04BB60FA68BB68134323F07F433B614D
:101D10003A693B681A403B689A4202D10123FB753D
:101D200001E00023FB75FB7D18461C37BD465DF8BE
:101D3000047B704780B487B000AF786000237B617C
:101D400000233B610023FB607B689B8A9BB23B6165
:101D50007B681B8B9BB2FB60FB681B04FB603A69D2
:101D6000FB68134323F07F437B617B6918461C3774
:101D7000BD465DF8047B704780B487B000AF7860E3
:101D800039600023FB7500233B610023FB607B6807
:101D9000FB603B681B0F3B613B6823F07F433B606C
:101DA0003B69002B03D0FB681433FB6005E03B6804
:101DB0001B0C3B60FB681833FB60FB681A683B68D0
:101DC0001340002B02D00123FB7501E00023FB75BB
:101DD000FB7D18461C37BD465DF8047B704700BF8D
:101DE00080B485B000AF786039600023FB603B6849
:101DF00023F07F43FB60FB689BB2DB439AB27B68B6
:101E00009A821437BD465DF8047B704780B485B074
:101E100000AF786039600023FB730023BB603B6830
:101E200003F0E0631B0C7A68928892B21340BB60A7
:101E30003B6823F07F433B607B689B8A9BB21A46DA
:101E40003B681340002B05D0BB68002B02D0012358
:101E5000FB7301E00023FB73FB7B18461437BD4680
:101E60005DF8047B704700BF80B485B000AF786038
:101E700039600023FB603B6823F07F43FB60FB6815
:101E80009BB2DB439AB27B689A821437BD465DF8F9
:101E9000047B7047002103E00A4B5B584350043138
:101EA00009480A4B42189A42F6D3094A02E0002335
:101EB00042F8043B074B9A42F9D300F00FF802F0C6
:101EC000F5FF70474450000800000020680400201F
:101ED00068040020CC040020FEE7000080B500AFBD
:101EE000154A154B1B6843F0010313601249124B4E
:101EF0005A68124B13404B600F4A0F4B1B6823F07C
:101F0000847323F4803313600B4A0B4B1B6823F458
:101F100080231360084A084B5B6823F4FE03536078
:101F2000054B4FF41F029A6000F07AF8044B4FF013
:101F300000629A6080BD00BF001002400000FFF800
:101F400000ED00E080B485B000AF0023FB6000230B
:101F5000BB6000237B602D4B5B6803F00C03FB60D0
:101F6000FB68042B07D0082B09D0002B34D1284B59
:101F7000284A1A6034E0264B264A1A6030E0234B88
:101F80005B6803F47013BB60204B5B6803F4803321
:101F90007B60BB689B0C0233BB607B68002B06D167
:101FA000BB681D4A02FB03F3194A136013E0174B89
:101FB0005B6803F40033002B06D0BB68164A02FBB3
:101FC00003F3134A136006E0BB68124A02FB03F3F3
:101FD0000F4A136004E003E00D4B0E4A1A6000BF85
:101FE0000A4B5B6803F0F0031B090C4AD35CDBB2BD
:101FF000FB60074B1A68FB6822FA03F3044A13607C
:102000001437BD465DF8047B704700BF00100240E6
:102010001400002000127A0000093D001800002082
:1020200080B500AF00F002F880BD00BF80B483B07F
:1020300000AF00237B6000233B603A4A394B1B68AA
:1020400043F480331360374B1B6803F400333B6069
:102050007B6801337B603B68002B03D17B68B3F561
:10206000A06FF0D12F4B1B6803F40033002B02D07C
:1020700001233B6001E000233B603B68012B4BD117
:10208000294A294B1B6843F010031360264A264B4C
:102090001B6823F003031360234A234B1B6843F0A0
:1020A000020313601F4A1F4B5B6853601D4A1D4BA0
:1020B0005B6853601B4A1B4B5B6843F4806353604F
:1020C000184A184B5B6823F47C135360154A154B70
:1020D0005B6843F4E8135360124A124B1B6843F0E9
:1020E0008073136000BF0F4B1B6803F00073002B5D
:1020F000F9D00C4A0B4B5B6823F003035360094A89
:10210000084B5B6843F00203536000BF054B5B68FC
:1021100003F00C03082BF9D10C37BD465DF8047BA6
:10212000704700BF001002400020024080B586B01A
:1021300000AFF860B9607A60FB7000237B617B6957
:1021400000233B61FB689B889BB243F480739AB287
:10215000FB689A80FB78022B40F08C80F868B968A5
:102160007A68012300F030FDFB689B889BB243F442
:1021700080539AB2FB689A80FB689B889BB243F4B9
:1021800000639AB2FB689A804FF6FF733B61FB686D
:102190001B889BB243F480739AB2FB681A8006E0F6
:1021A0003B695A1E3A61002B01D1002363E2FB68B0
:1021B0009B8A9BB203F00103002BF1D04FF6FF7313
:1021C0003B6197F8203043F0010387F82030864ABE
:1021D00097F820301370844B1B78DBB29AB2FB68FF
:1021E0001A8206E03B695A1E3A61002B01D1002396
:1021F00041E2FB689B8A9BB203F00203002BF1D003
:10220000FB681B8B9BB27B61FB68784A934210D1C1
:1022100000BF4FF00070FFF709F90346002BF8D01C
:1022200073480021FFF7ACF84FF00070FFF728F972
:102230000FE000BF4FF40030FFF7F8F80346002B23
:10224000F8D06C480021FFF79BF84FF40030FFF7FF
:1022500017F9FB681B889BB243F400739AB2FB68C2
:102260001A8000BFFB681B889BB203F40073002B2D
:10227000F8D1FFE1FB78002B40F0B4817B68012BA3
:1022800070D14FF6FF733B61FB681B889BB243F430
:1022900080739AB2FB681A8006E03B695A1E3A6165
:1022A000002B01D10023E6E1FB689B8A9BB203F07F
:1022B0000103002BF1D097F8203043F0010387F899
:1022C0002030494A97F820301370474B1B78DBB217
:1022D0009AB2FB681A824FF6FF733B6106E03B69D6
:1022E0005A1E3A61002B01D10023C4E1FB689B8A8E
:1022F0009BB203F00203002BF1D0FB681B889BB25A
:1023000023F480639AB2FB681A8072B6FB681B8B59
:102310009BB27B61FB681B889BB243F400739AB24B
:10232000FB681A8062B600BFFB689B8A9BB203F011
:102330004003002BF8D0FB681B8A9BB2DAB2BB6863
:102340001A7000BFFB681B889BB203F40073002B5C
:10235000F8D1FB681B889BB243F480639AB2FB6898
:102360001A8087E17B68022B40F09180FB681B8814
:102370009BB243F400639AB2FB681A804FF6FF7376
:102380003B61FB681B889BB243F480739AB2FB6885
:102390001A8006E03B695A1E3A61002B01D10023E6
:1023A00069E1FB689B8A9BB203F00103002BF1D02B
:1023B0004FF6FF733B6197F8203043F0010387F835
:1023C0002030094A97F820301370074B1B78DBB296
:1023D0009AB2FB681A820FE03B695A1E3A61002BE1
:1023E0000AD1002347E100BFBC0400200054004094
:1023F0008000024058000240FB689B8A9BB203F0B9
:102400000203002BE8D072B6FB681B8B9BB27B618A
:10241000FB681B889BB223F480639AB2FB681A8026
:1024200062B600BFFB689B8A9BB203F00403002BDB
:10243000F8D072B6F8680121FFF702FAFB681B8A30
:102440009BB2DAB2BB681A7062B6BB680133BB607C
:10245000FB681B8A9BB2DAB2BB681A7000BFFB68CC
:102460001B889BB203F40073002BF8D1FB681B8818
:102470009BB243F480639AB2FB681A80FB681B88A6
:102480009BB223F400639AB2FB681A80F2E04FF625
:10249000FF733B61FB681B889BB243F480739AB265
:1024A000FB681A8006E03B695A1E3A61002B01D195
:1024B0000023E0E0FB689B8A9BB203F00103002B42
:1024C000F1D04FF6FF733B6197F8203043F00103E2
:1024D00087F820306A4A97F820301370684B1B78D1
:1024E000DBB29AB2FB681A8206E03B695A1E3A6177
:1024F000002B01D10023BEE0FB689B8A9BB203F056
:102500000203002BF1D0FB681B8B9BB27B6155E073
:102510007B68032B13D000BFFB689B8A9BB203F040
:102520000403002BF8D0FB681B8A9BB2DAB2BB68AD
:102530001A70BB680133BB607B68013B7B607B68C2
:10254000032B3BD100BFFB689B8A9BB203F00403C3
:10255000002BF8D0FB681B889BB223F480639AB2EF
:10256000FB681A8072B6FB681B8A9BB2DAB2BB6842
:102570001A70BB680133BB60FB681B889BB243F4D5
:1025800000739AB2FB681A80FB681B8A9BB2DAB2AE
:10259000BB681A7062B6BB680133BB6000BFFB68E2
:1025A0009B8A9BB203F04003002BF8D0FB681B8A88
:1025B0009BB2DAB2BB681A7000237B607B68002B89
:1025C000A6D100BFFB681B889BB203F40073002BED
:1025D000F8D1FB681B889BB243F480639AB2FB6816
:1025E0001A8047E0FB689B889BB243F400739AB261
:1025F000FB689A80FB689B889BB243F480639AB225
:10260000FB689A801F4B01221A6097F8203043F034
:10261000010387F820301A4A97F820301370FB68BE
:10262000194A934203D1194A7B68136002E0184AA1
:102630007B681360FB681B889BB243F480739AB27B
:10264000FB681A8000BFFB681B889BB203F4807391
:10265000002BF8D100BFFB681B8B9BB203F0020379
:10266000002BF8D1FB681B889BB243F480639AB2BD
:10267000FB681A80012318461837BD4680BD00BF8D
:10268000BC0400208804002000540040C404002042
:10269000C004002080B586B000AFF860B9607A60F1
:1026A000FB7000237B617B6900233B61FB689B8897
:1026B0009BB243F480739AB2FB689A80FB78022B3A
:1026C00040F08C804FF6FF733B61F868B9687A6818
:1026D000002300F079FAFB689B889BB243F4006307
:1026E0009AB2FB689A80FB681B889BB243F48073A4
:1026F0009AB2FB681A8006E03B695A1E3A61002BC9
:1027000001D1002328E1FB689B8A9BB203F00103FF
:10271000002BF1D04FF6FF733B6197F8203023F088
:10272000010387F820308E4A97F8203013708C4BC5
:102730001B78DBB29AB2FB681A8206E03B695A1E2C
:102740003A61002B01D1002306E1FB689B8A9BB212
:1027500003F00203002BF1D0FB681B8B9BB27B6163
:10276000FB68804A934210D100BF4FF40010FEF77F
:102770005DFE0346002BF8D07B480021FEF700FEEB
:102780004FF40010FEF77CFE0FE000BF4FF4005046
:10279000FEF74CFE0346002BF8D074480021FEF7EC
:1027A000EFFD4FF40050FEF76BFE00BFFB689B8A05
:1027B0009BB203F00403002BF8D0FB681B889BB28C
:1027C00043F400739AB2FB681A8000BFFB681B8851
:1027D0009BB203F40073002BF8D1BCE0FB78002B14
:1027E00079D14FF6FF733B61FB681B889BB243F4C2
:1027F00080739AB2FB681A8006E03B695A1E3A6100
:10280000002B01D10023A7E0FB689B8A9BB203F059
:102810000103002BF1D097F8203023F0010387F853
:1028200020304F4A97F8203013704D4B1B78DBB2A5
:102830009AB2FB681A824FF6FF733B6106E03B6970
:102840005A1E3A61002B01D1002385E0FB689B8A68
:102850009BB203F00203002BF1D0FB681B8B9BB2F1
:102860007B61BB681B789AB2FB681A82BB68013334
:10287000BB607B68013B7B600FE000BFFB689B8A0D
:102880009BB203F00403002BF8D0BB681B789AB20C
:10289000FB681A82BB680133BB607B685A1E7A6092
:1028A000002BEAD100BFFB689B8A9BB203F00403B4
:1028B000002BF8D0FB681B889BB243F400739AB2DC
:1028C000FB681A8000BFFB681B889BB203F400738F
:1028D000002BF8D13FE0FB689B889BB243F4007368
:1028E0009AB2FB689A80FB689B889BB243F4806332
:1028F0009AB2FB689A801E4B00221A6097F820302B
:1029000023F0010387F82030154A97F82030137020
:10291000FB68144A934203D1164A7B68136002E0B5
:10292000154A7B681360FB681B889BB243F4807375
:102930009AB2FB681A8000BFFB681B889BB203F445
:102940008073002BF8D100BFFB681B8B9BB203F098
:102950000203002BF8D1012318461837BD4680BD6D
:10296000BC040020005400406C00024044000240BF
:1029700088040020C4040020C004002080B483B078
:1029800000AF78600B46FB707B689B889BB243F47A
:1029900000739AB27B689A807B689B889BB243F4F1
:1029A00080739AB27B689A80FB78022B08D17B688F
:1029B0009B889BB243F400639AB27B689A8007E0DD
:1029C0007B689B889BB243F480639AB27B689A8051
:1029D0000C37BD465DF8047B704700BF80B588B0FA
:1029E00000AF786008200121FEF78AFA012001215A
:1029F000FEF768FA7B68694A934223D14FF40010CE
:102A00000121FEF79BFA4023BB830323BB771C23E2
:102A1000FB7707F11C0362481946FDF721FD80236F
:102A2000BB8307F11C035E481946FDF719FD4FF4FF
:102A300000100121FEF7BEFA4FF400100021FEF74E
:102A4000B9FA24E04FF480000121FEF777FA4FF441
:102A50008063BB830323BB771C23FB7707F11C0335
:102A60004F481946FDF7FCFC4FF40063BB8307F1A8
:102A70001C034B481946FDF7F3FC4FF4800001217D
:102A8000FEF798FA4FF480000021FEF793FA002336
:102A90003B824BF6FF737B822823BB824FF480631B
:102AA000FB824FF480433B833E4BFB6007F10C03FA
:102AB0003A481946FEF764FD3023BB8207F10C0348
:102AC00039481946FEF75CFD7B68344A934231D1A0
:102AD0003648FEF731FB364B364A1A60344B00223B
:102AE0005A60334B10229A60314B4FF6FF72DA6016
:102AF0002F4B00221A612E4B80225A612C4B002250
:102B00009A612B4B0022DA61294B00221A62284B72
:102B10004FF440525A62264B00229A6223482449BD
:102B2000FEF7C6FB2448FEF707FB23482049FEF7C3
:102B3000BFFB30E02148FEF7FFFA1D4B204A1A6028
:102B40001B4B00225A601A4B10229A60184B4FF60A
:102B5000FF72DA60164B00221A61154B80225A610F
:102B6000134B00229A61124B0022DA61104B0022B3
:102B70001A620F4B4FF440525A620D4B00229A6278
:102B80000E480B49FEF794FB0E48FEF7D5FA0D48A8
:102B90000749FEF78DFB2037BD4680BD005400403D
:102BA000000C0140A0860100005800406C0002406B
:102BB0009004002010540040800002404400024075
:102BC000105800405800024080B584B000AFF86053
:102BD000B9607A603B603B68002B2CD1BB682D4A02
:102BE00053602C4B10229A602A4A7B68D360FB68A2
:102BF000294A93420FD1274B284A1A6028480021BE
:102C0000FEF7BEFB26482349FEF752FB244801216C
:102C1000FEF7B6FB3BE01F4B224A1A602248002118
:102C2000FEF7AEFB20481B49FEF742FB1E48012180
:102C3000FEF7A6FB2BE0BB68164A5360154B00223B
:102C40009A60144A7B68D360FB68134A93420FD1A1
:102C5000104B124A1A6015480021FEF791FB1348E9
:102C60000C49FEF725FB11480121FEF789FB0EE018
:102C7000084B0C4A1A600E480021FEF781FB0C48F5
:102C80000449FEF715FB0A480121FEF779FB1037CE
:102C9000BD4680BD90040020005400401054004008
:102CA0006C00024010580040440002408000024086
:102CB0005800024080B586B002AF03460A46FB7159
:102CC0001346BB710023FB73BB79002B02D0264B4C
:102CD0001B78FB73FB7923F00F03DAB2234B1B78CD
:102CE000DBB21343DAB2224B1B78DBB21343DAB206
:102CF000FB7B1343DBB2DAB21E4B1A70FB7923F075
:102D00000F03DAB2194B1B78DBB21343DBB2DAB232
:102D1000184B5A70FB791B01DAB2144B1B78DBB2EB
:102D20001343DAB2124B1B78DBB21343DAB2FB7BEC
:102D30001343DBB2DAB20F4B9A70FB791B01DAB2A4
:102D40000A4B1B78DBB21343DBB2DAB2094BDA7001
:102D50004E2300930848074904220023FFF79AFCFA
:102D60001037BD4680BD00BF2B000020280000208A
:102D7000290000208C0400200054004080B582B05F
:102D800000AF0346FB71FB7918460121FFF792FF64
:102D9000044B1B681846C821FDF754FA0837BD4696
:102DA00080BD00BFC804002080B582B000AF0346DC
:102DB000FB71FB7918460021FFF77CFF044B1B6871
:102DC000184641F28831FDF73DFA0837BD4680BD0F
:102DD000C804002080B584B000AF78607B68FB60D9
:102DE00006E0FB685A1CFA601B781846FFF7C6FF1E
:102DF000FB681B78002BF4D11037BD4680BD00BFA7
:102E000080B584B002AF0346FB71FB79DB00DAB218
:102E10000E4B1A704E2300930D480E4901220023D9
:102E2000FFF784F90B4B1A78084B1B781343DAB27F
:102E3000084B1A704E2300930548064901220023CF
:102E4000FFF728FC0837BD4680BD00BF28000020E2
:102E5000005400408C04002080B582B000AF0346CF
:102E6000FB71FB79032B1BD801A252F823F000BFA2
:102E7000812E0008892E0008912E0008992E000846
:102E80008020FFF791FF0CE0C020FFF78DFF08E0E6
:102E90009420FFF789FF04E0D420FFF785FF00E0CE
:102EA00000BF0837BD4680BD80B584B000AF034683
:102EB0000A46FB711346BB71FB791846FFF7CCFF3E
:102EC0000023FB7302E01420FFF76EFFFB7B5A1C0C
:102ED000FA73BA799A42F6D81037BD4680BD00BF62
:102EE00080B584B000AF03463960FB71FB79072BD6
:102EF00000D919E0FB790833DBB2DB00FB71FB7909
:102F00001846FFF751FF0023FB730AE0FB7B3A688A
:102F100013441B7818460121FFF7CCFEFB7B0133DD
:102F2000FB73FB7B072BF1D91037BD4680BD00BF7B
:102F300080B58CB002AF7860444A7B681360434B25
:102F40001B68B3F1804F04D101200121FDF7F6FF8A
:102F50000AE03E4B1B683E4A934204D10220012105
:102F6000FDF7ECFF00E0FEE70023FB814723BB8178
:102F700042F20F733B8200237B8200233B75334B6D
:102F80001A6807F10C031046194600F089F92F4B17
:102F90001B681846012100F04BFD2E4B1A782E4B72
:102FA0001A702C4B1A782C4B5A704E2300932B48D6
:102FB000294901220023FFF76DFB0320FFF7F4FEF0
:102FC000224B1B68184641F28831FDF73BF903207C
:102FD000FFF7EAFE1D4B1B6818466421FDF732F926
:102FE0000220FFF7E1FE194B1B681846C821FDF7C8
:102FF00029F92820FFF7D8FE0620FFF7D5FE01208B
:10300000FFF7D2FE0E20FFF7CFFE0C20FFF7CCFE1D
:10301000134A07F118031068516803C307F1180336
:1030200000201946FFF75CFF0E4A07F120031068E5
:10303000516803C307F1200301201946FFF750FF31
:103040000120FFF7B1FE2837BD4680BDC80400202F
:1030500000040040280000208C04002000540040A0
:103060000C5000081450000880B500AF0120FFF795
:103070009BFE80BD80B582B000AF78607B68784AE7
:1030800093420AD14FF400600121FDF775FF4FF420
:1030900000600021FDF770FFDEE07B68B3F1804F38
:1030A00008D101200121FDF785FF01200021FDF756
:1030B00081FFD1E07B686B4A934208D10220012155
:1030C000FDF778FF02200021FDF774FFC4E07B6864
:1030D000654A934208D104200121FDF76BFF0420CB
:1030E0000021FDF767FFB7E07B68604A934208D193
:1030F00008200121FDF75EFF08200021FDF75AFF9F
:10310000AAE07B685A4A934208D110200121FDF7BA
:1031100051FF10200021FDF74DFF9DE07B68554ACF
:10312000934208D120200121FDF744FF20200021F7
:10313000FDF740FF90E07B684F4A93420AD14FF47D
:1031400000500121FDF718FF4FF400500021FDF75A
:1031500013FF81E07B68494A93420AD14FF4002073
:103160000121FDF709FF4FF400200021FDF704FFC6
:1031700072E07B68424A93420AD14FF480100121E9
:10318000FDF7FAFE4FF480100021FDF7F5FE63E035
:103190007B683C4A93420AD14FF400100121FDF7AD
:1031A000EBFE4FF400100021FDF7E6FE54E07B68D3
:1031B000354A934208D140200121FDF7FBFE402013
:1031C0000021FDF7F7FE47E07B68304A934208D1C3
:1031D00080200121FDF7EEFE80200021FDF7EAFEB0
:1031E0003AE07B682A4A93420AD14FF48070012169
:1031F000FDF7E0FE4FF480700021FDF7DBFE2BE0D1
:103200007B68244A93420AD14FF480300121FDF7B4
:10321000B3FE4FF480300021FDF7AEFE1CE07B686A
:103220001D4A93420AD14FF400300121FDF7A4FE5C
:103230004FF400300021FDF79FFE0DE07B68174A38
:10324000934209D14FF480200121FDF795FE4FF400
:1032500080200021FDF790FE0837BD4680BD00BFED
:10326000002C01400004004000080040000C004019
:10327000001000400014004000340140004C0140A8
:10328000005001400054014000180040001C004064
:10329000002000400040014000440140004801403F
:1032A00080B485B000AF786039600023FB817B6813
:1032B0001B88FB817B682E4A934213D07B682D4A82
:1032C00093420FD07B68B3F1804F0BD07B682A4AC2
:1032D000934207D07B68294A934203D07B68284AEF
:1032E000934208D1FB8923F07003FB813B685A8825
:1032F000FB891343FB817B68224A93420CD07B6895
:10330000214A934208D0FB8923F44073FB813B6838
:10331000DA88FB891343FB817B68FA891A803B6852
:103320009A887B689A853B681A887B681A857B68CF
:103330000F4A93420FD07B680E4A93420BD07B68B2
:10334000124A934207D07B68114A934203D07B68AC
:10335000104A934204D13B681B7A9AB27B681A8662
:103360007B6801229A821437BD465DF8047B704762
:10337000002C0140003401400004004000080040DF
:10338000000C0040001000400014004000400140CC
:10339000004401400048014080B485B000AF78602F
:1033A000396000237B810023FB810023BB817B6884
:1033B0001B8C9BB223F001039AB27B681A847B6852
:1033C0001B8CFB817B689B88BB817B681B8B7B8113
:1033D0007B8923F070037B817B8923F003037B814E
:1033E0003B681A887B8913437B81FB8923F00203A6
:1033F000FB813B681A89FB891343FB813B685A8830
:10340000FB891343FB817B68244A93420FD07B687E
:10341000234A93420BD07B68224A934207D07B68B1
:10342000214A934203D07B68204A934223D1FB89EF
:1034300023F00803FB813B685A89FB891343FB8116
:10344000FB8923F00403FB813B689A88FB891343C3
:10345000FB81BB8923F48073BB81BB8923F4007398
:10346000BB813B689A89BB891343BB813B68DA897E
:10347000BB891343BB817B68BA899A807B687A8950
:103480001A833B68DA887B689A867B68FA891A8493
:103490001437BD465DF8047B704700BF002C014027
:1034A0000034014000400140004401400048014018
:1034B00080B485B000AF7860396000237B81002341
:1034C000FB810023BB817B681B8C9BB223F0100324
:1034D0009AB27B681A847B681B8CFB817B689B8813
:1034E000BB817B681B8B7B817B8923F4E0437B81E1
:1034F0007B8923F440737B813B681B881B029AB253
:103500007B8913437B81FB8923F02003FB813B688C
:103510001B891B019AB2FB891343FB813B685B88C3
:103520001B019AB2FB891343FB817B68224A9342B9
:1035300003D07B68214A93422BD1FB8923F080037F
:10354000FB813B685B891B019AB2FB891343FB81BA
:10355000FB8923F04003FB813B689B881B019AB2E7
:10356000FB891343FB81BB8923F48063BB81BB8947
:1035700023F40063BB813B689B899B009AB2BB89A3
:103580001343BB813B68DB899B009AB2BB89134321
:10359000BB817B68BA899A807B687A891A833B6889
:1035A000DA887B681A877B68FA891A841437BD46E3
:1035B0005DF8047B704700BF002C014000340140DF
:1035C00080B485B000AF7860396000237B81002330
:1035D000FB810023BB817B681B8C9BB223F480732F
:1035E0009AB27B681A847B681B8CFB817B689B8802
:1035F000BB817B689B8B7B817B8923F070037B8104
:103600007B8923F003037B813B681A887B89134302
:103610007B81FB8923F40073FB813B681B891B02C0
:103620009AB2FB891343FB813B685B881B029AB209
:10363000FB891343FB817B68224A934203D07B685A
:10364000214A93422BD1FB8923F40063FB813B6821
:103650005B891B029AB2FB891343FB81FB8923F42C
:103660008063FB813B689B881B029AB2FB891343F2
:10367000FB81BB8923F48053BB81BB8923F40053B6
:10368000BB813B689B891B019AB2BB891343BB81F9
:103690003B68DB891B019AB2BB891343BB817B6802
:1036A000BA899A807B687A899A833B68DA887B68D2
:1036B0009A877B68FA891A841437BD465DF8047BC3
:1036C000704700BF002C01400034014080B485B039
:1036D00000AF786039600023BB8100237B81002329
:1036E000FB817B681B8C9BB223F480539AB27B686E
:1036F0001A847B681B8C7B817B689B88FB817B6841
:103700009B8BBB81BB8923F4E043BB81BB8923F442
:103710004073BB813B681B881B029AB2BB89134371
:10372000BB817B8923F400537B813B681B891B038E
:103730009AB27B8913437B813B685B881B039AB2F7
:103740007B8913437B817B68124A934203D07B6859
:10375000114A93420AD1FB8923F48043FB813B68E1
:103760009B899B019AB2FB891343FB817B68FA8991
:103770009A807B68BA899A833B68DA887B68A3F869
:1037800040207B687A891A841437BD465DF8047B33
:10379000704700BF002C01400034014080B582B06A
:1037A00000AF786039603B681B88002B0FD13B6805
:1037B00059883B689A883B681B89786801F086F9CC
:1037C0003B68DB887868194601F036F836E03B68DC
:1037D0001B88042B0FD13B6859883B689A883B684B
:1037E0001B89786801F0E2F93B68DB887868194644
:1037F00001F03EF822E03B681B88082B0FD13B68A4
:1038000059883B689A883B681B89786801F048FAB8
:103810003B68DB887868194601F048F80EE03B68A1
:1038200059883B689A883B681B89786801F0AEFA32
:103830003B68DB887868194601F054F80837BD46C4
:1038400080BD00BF80B584B000AF786039600023D0
:10385000FB810123BB813B685B88002B02D10223E3
:10386000FB8101E00023FB813B689B88012B02D197
:103870000223BB8101E00123BB813B681B88002B35
:103880001CD13B6859883B689A883B681B897868DB
:1038900001F01CF93B68DB887868194600F0CCFF22
:1038A0003B681B89F989BA89786801F07FF93B6820
:1038B000DB887868194600F0DBFF1BE03B6859881D
:1038C0003B689A883B681B89786801F06FF93B6810
:1038D000DB887868194600F0CBFF3B681B89F989C3
:1038E000BA89786801F0F2F83B68DB887868194695
:1038F00000F0A2FF1037BD4680BD00BF80B483B08A
:1039000000AF786039603B681A883B685B88134376
:103910009AB23B689B8813439AB23B68DB88134397
:103920009AB23B681B8913439AB23B685B89134385
:103930009AB23B689B8913439AB27B68A3F84420F0
:103940000C37BD465DF8047B704700BF80B483B080
:1039500000AF78607B684FF6FF729A807B68002228
:103960001A807B680022DA807B6800225A807B689C
:1039700000221A720C37BD465DF8047B704700BF09
:1039800080B483B000AF78607B6800221A807B68C7
:1039900000225A807B6800229A807B680022DA80AD
:1039A0007B6800221A817B6800225A817B68002292
:1039B0009A817B680022DA810C37BD465DF8047B72
:1039C000704700BF80B483B000AF78607B6800228E
:1039D0001A807B6800225A807B6801229A807B686B
:1039E0000022DA807B6800221A810C37BD465DF820
:1039F000047B704780B483B000AF78607B6800229E
:103A00001A807B6800225A807B6800229A807B683B
:103A10000022DA807B6800221A817B6800225A81AA
:103A20007B6800229A810C37BD465DF8047B7047A5
:103A300080B483B000AF78600B46FB70FB78002B3E
:103A400008D07B681B889BB243F001039AB27B6865
:103A50001A8007E07B681B889BB223F001039AB2AF
:103A60007B681A800C37BD465DF8047B704700BF49
:103A700080B483B000AF78600B46FB70FB78002BFE
:103A80000CD07B68B3F844309BB26FEA43436FEAD3
:103A900053439AB27B68A3F8442009E07B68B3F8EB
:103AA00044309BB2C3F30E039AB27B68A3F8442060
:103AB0000C37BD465DF8047B704700BF80B483B00F
:103AC00000AF78600B467B8013467B707B78002BC1
:103AD00008D07B689B899AB27B8813439AB27B6833
:103AE0009A8109E07B689B899AB27B88DB439BB211
:103AF00013409AB27B689A810C37BD465DF8047B0F
:103B0000704700BF80B483B000AF78600B467B8005
:103B10007B687A889A820C37BD465DF8047B7047D3
:103B200080B483B000AF78600B467B8013463B8047
:103B30007A883B8813439AB27B68A3F848200C37F5
:103B4000BD465DF8047B704780B483B000AF7860F9
:103B50000B467B8013467B707B78002B08D07B68FC
:103B60009B899AB27B8813439AB27B689A8109E059
:103B70007B689B899AB27B88DB439BB213409AB2E5
:103B80007B689A810C37BD465DF8047B704700BFA7
:103B900080B483B000AF78607B681B899BB223F050
:103BA00007039AB27B681A810C37BD465DF8047B27
:103BB000704700BF80B582B000AF78600B467B8055
:103BC0007B887868194600F0E1F87B681B899BB216
:103BD00043F007039AB27B681A810837BD4680BD5F
:103BE00080B584B000AFF860084611461A46034617
:103BF0007B810B463B811346FB807B89602B07D181
:103C00003A89FB88F8681146012200F0CFFF06E0F0
:103C10003A89FB88F8681146012200F057FF7B893A
:103C2000F868194600F0B2F8FB681B899BB243F0B4
:103C300007039AB2FB681A811037BD4680BD00BFEA
:103C400080B586B000AFF860084611461A460346B4
:103C50007B810B463B811346FB800023FB827989E5
:103C60003A89FB88F86800F037F8FB681B89FB820B
:103C7000FB8A23F00703FB82FB8A43F00703FB82E6
:103C8000FB8A23F07003FB82FB8A43F07003FB8204
:103C9000FB68FA8A1A811837BD4680BD80B584B0AA
:103CA00000AFF860084611461A4603467B810B4672
:103CB0003B811346FB8079893A89FB88F86800F0DC
:103CC0000BF8FB681B899BB243F480439AB2FB68F4
:103CD0001A811037BD4680BD80B487B000AFF86050
:103CE000084611461A4603467B810B463B81134624
:103CF000FB800023FB82FB681B89FB82FB8ADBB213
:103D0000FB82FB881B029AB23B8913439AB27B89E0
:103D100013439AB2FB8A1343FB82FB68FA8A1A8127
:103D20001C37BD465DF8047B704700BF80B483B08C
:103D300000AF78600B467B8013463B807B687A88B7
:103D40001A857B683A889A820C37BD465DF8047BF9
:103D5000704700BF80B485B000AF78600B467B80B1
:103D60000023FB817B681B88FB81FB8923F07003A8
:103D7000FB81FA897B881343FB817B68FA891A806F
:103D80001437BD465DF8047B704700BF80B485B032
:103D900000AF78600B467B800023FB817B681B892A
:103DA000FB81FB8923F07003FB81FA897B88134335
:103DB000FB817B68FA891A811437BD465DF8047B64
:103DC000704700BF80B487B000AFF8600846114666
:103DD0001A4603467B810B463B811346FB8000233A
:103DE000FB820023BB8200237B82FB681B89FB8252
:103DF000FB681B8BBB82FB681B8C7B82FB8A23F0DE
:103E00000703FB82FA8A7B891343FB82BB8A23F474
:103E1000407323F00303BB82BB8A43F4807343F0F7
:103E20000103BB827B8A23F022037B82FB881B0178
:103E30009AB23B8913439AB27B8A13437B82FB6815
:103E4000FA8A1A81FB68BA8A1A83FB687A8A1A840A
:103E50001C37BD465DF8047B704700BF80B485B059
:103E600000AF78600B467B800023FB817B681B8B57
:103E7000FB81FB8923F07003FB81FA897B88134364
:103E8000FB817B68FA891A831437BD465DF8047B91
:103E9000704700BF80B485B000AF78600B467B8070
:103EA0000023FB817B681B8BFB81FB8923F4E043B0
:103EB000FB817B881B029AB2FB891343FB817B68E1
:103EC000FA891A831437BD465DF8047B704700BF3A
:103ED00080B485B000AF78600B467B800023FB8107
:103EE0007B689B8BFB81FB8923F07003FB81FA8944
:103EF0007B881343FB817B68FA899A831437BD461C
:103F00005DF8047B704700BF80B485B000AF786077
:103F10000B467B800023FB817B689B8BFB81FB89AD
:103F200023F4E043FB817B881B029AB2FB89134395
:103F3000FB817B68FA899A831437BD465DF8047B60
:103F4000704700BF80B483B000AF78600B46FB7051
:103F5000FB78002B08D07B681B889BB243F0800362
:103F60009AB27B681A8007E07B681B889BB223F0BB
:103F700080039AB27B681A800C37BD465DF8047BDB
:103F8000704700BF80B483B000AF78600B46FB7011
:103F9000FB78002B08D07B689B889BB243F004031E
:103FA0009AB27B689A8007E07B689B889BB223F07B
:103FB00004039AB27B689A800C37BD465DF8047B97
:103FC000704700BF80B483B000AF78600B46FB70D1
:103FD000FB78002B08D07B689B889BB243F00803DA
:103FE0009AB27B689A8007E07B689B889BB223F03B
:103FF00008039AB27B689A800C37BD465DF8047B53
:10400000704700BF80B483B000AF78600B46FB7090
:10401000FB78002B08D07B689B889BB243F00103A0
:104020009AB27B689A8007E07B689B889BB223F0FA
:1040300001039AB27B689A800C37BD465DF8047B19
:10404000704700BF80B485B000AF78600B467B80BE
:104050000023FB817B681B8BFB81FB8923F008031A
:10406000FB81FA897B881343FB817B68FA891A8379
:104070001437BD465DF8047B704700BF80B485B03F
:1040800000AF78600B467B800023FB817B681B8B35
:10409000FB81FB8923F40063FB817B881B029AB2BE
:1040A000FB891343FB817B68FA891A831437BD4669
:1040B0005DF8047B704700BF80B485B000AF7860C6
:1040C0000B467B800023FB817B689B8BFB81FB89FC
:1040D00023F00803FB81FA897B881343FB817B680B
:1040E000FA899A831437BD465DF8047B704700BF98
:1040F00080B485B000AF78600B467B800023FB81E5
:104100007B689B8BFB81FB8923F40063FB817B88AD
:104110001B029AB2FB891343FB817B68FA899A835D
:104120001437BD465DF8047B704700BF80B485B08E
:1041300000AF78600B467B800023FB817B681B8B84
:10414000FB81FB8923F00403FB81FA897B881343FD
:10415000FB817B68FA891A831437BD465DF8047BBE
:10416000704700BF80B485B000AF78600B467B809D
:104170000023FB817B681B8BFB81FB8923F480631D
:10418000FB817B881B029AB2FB891343FB817B680E
:10419000FA891A831437BD465DF8047B704700BF67
:1041A00080B485B000AF78600B467B800023FB8134
:1041B0007B689B8BFB81FB8923F00403FB81FA89DD
:1041C0007B881343FB817B68FA899A831437BD4649
:1041D0005DF8047B704700BF80B485B000AF7860A5
:1041E0000B467B800023FB817B689B8BFB81FB89DB
:1041F00023F48063FB817B881B029AB2FB89134303
:10420000FB817B68FA899A831437BD465DF8047B8D
:10421000704700BF80B485B000AF78600B467B80EC
:104220000023FB817B681B8BFB81FB8923F08003D0
:10423000FB81FA897B881343FB817B68FA891A83A7
:104240001437BD465DF8047B704700BF80B485B06D
:1042500000AF78600B467B800023FB817B681B8B63
:10426000FB81FB89C3F30E03FB817B881B029AB29F
:10427000FB891343FB817B68FA891A831437BD4697
:104280005DF8047B704700BF80B485B000AF7860F4
:104290000B467B800023FB817B689B8BFB81FB892A
:1042A00023F08003FB81FA897B881343FB817B68C1
:1042B000FA899A831437BD465DF8047B704700BFC6
:1042C00080B485B000AF78600B467B800023FB8113
:1042D0007B689B8BFB81FB89C3F30E03FB817B888F
:1042E0001B029AB2FB891343FB817B68FA899A838C
:1042F0001437BD465DF8047B704700BF80B485B0BD
:1043000000AF78600B467B800023FB817B681B8CB1
:10431000FB81FB8923F00203FB81FA897B8813432D
:10432000FB817B68FA891A841437BD465DF8047BEB
:10433000704700BF80B485B000AF78600B467B80CB
:104340000023FB817B681B8CFB81FB8923F0080326
:10435000FB81FA897B881343FB817B68FA891A8485
:104360001437BD465DF8047B704700BF80B485B04C
:1043700000AF78600B467B800023FB817B681B8C41
:10438000FB81FB8923F02003FB817B881B019AB210
:10439000FB891343FB817B68FA891A841437BD4675
:1043A0005DF8047B704700BF80B485B000AF7860D3
:1043B0000B467B800023FB817B681B8CFB81FB8988
:1043C00023F08003FB817B881B019AB2FB89134396
:1043D000FB817B68FA891A841437BD465DF8047B3B
:1043E000704700BF80B485B000AF78600B467B801B
:1043F0000023FB817B681B8CFB81FB8923F400730A
:10440000FB817B881B029AB2FB891343FB817B688B
:10441000FA891A841437BD465DF8047B704700BFE3
:1044200080B485B000AF78600B467B800023FB81B1
:104430007B681B8CFB81FB8923F40063FB817B88F9
:104440001B029AB2FB891343FB817B68FA891A84A9
:104450001437BD465DF8047B704700BF80B485B05B
:1044600000AF78600B467B800023FB817B681B8C50
:10447000FB81FB8923F40053FB817B881B039AB2E9
:10448000FB891343FB817B68FA891A841437BD4684
:104490005DF8047B704700BF80B485B000AF7860E2
:1044A0000B467B8013463B800023FB817B880122E7
:1044B00002FA03F3FB817B681B8C9AB2FB89DB4316
:1044C0009BB213409AB27B681A847B681B8C9AB2A9
:1044D00039887B8801FA03F39BB213439AB27B6855
:1044E0001A841437BD465DF8047B704780B485B0EC
:1044F00000AF78600B467B8013463B800023FB8136
:104500007B88042202FA03F3FB817B681B8C9AB23E
:10451000FB89DB439BB213409AB27B681A847B68A9
:104520001B8C9AB239887B8801FA03F39BB2134340
:104530009AB27B681A841437BD465DF8047B7047D5
:1045400080B485B000AF78600B467B8013463B801B
:104550000023FB6000237B817B68FB60FB681833D2
:10456000FB607B88012202FA03F37B817B681B8C52
:104570009AB27B89DB439BB213409AB27B681A8460
:104580007B88002B02D07B88082B13D17B885B08AB
:104590009BB21A46FB681344FB60FB68FA6812681A
:1045A00022F070021A60FB68FA6811683A880A43C0
:1045B0001A6016E07B88043B9BB25B089BB21A46EC
:1045C000FB681344FB60FB68FA68126822F4E0425F
:1045D0001A60FB68FA6812683988090289B20A43CE
:1045E0001A601437BD465DF8047B704780B483B011
:1045F00000AF78600B46FB70FB78002B08D07B681F
:104600001B889BB243F002039AB27B681A8007E0D2
:104610007B681B889BB223F002039AB27B681A80E6
:104620000C37BD465DF8047B704700BF80B483B093
:1046300000AF78600B467B807B88002B08D07B68BE
:104640001B889BB243F004039AB27B681A8007E090
:104650007B681B889BB223F004039AB27B681A80A4
:104660000C37BD465DF8047B704700BF80B483B053
:1046700000AF78600B46FB70FB78002B08D07B689E
:104680009B889BB243F080039AB27B689A8007E0D4
:104690007B689B889BB223F080039AB27B689A80E8
:1046A0000C37BD465DF8047B704700BF80B483B013
:1046B00000AF78600B467B807B681B889BB223F041
:1046C00008039AB27B681A807B681B889AB27B8841
:1046D00013439AB27B681A800C37BD465DF8047BA1
:1046E000704700BF80B483B000AF78600B467B801A
:1046F0007B689B889BB223F070039AB27B689A8098
:104700007B689B889AB27B8813439AB27B689A80B5
:104710000C37BD465DF8047B704700BF80B483B0A2
:1047200000AF78600B467B807B681B899BB223F0CF
:1047300007039AB27B681A817B681B899AB27B88CF
:1047400013439AB27B681A810C37BD465DF8047B2F
:10475000704700BF80B483B000AF78600B467B80A9
:104760007B681B899BB223F080039AB27B681A8115
:104770007B681B899AB27B8813439AB27B681A8143
:104780000C37BD465DF8047B704700BF80B483B032
:1047900000AF78600B467B807B687A889A840C3700
:1047A000BD465DF8047B704780B483B000AF78608D
:1047B0000B467B807B687A889A850C37BD465DF80E
:1047C000047B704780B483B000AF78600B467B8079
:1047D0007B687A889A860C37BD465DF8047B704703
:1047E00080B483B000AF78600B467B807B687A88AA
:1047F0001A870C37BD465DF8047B704780B483B0E0
:1048000000AF78600B467B807B687A889A870C378C
:10481000BD465DF8047B704780B483B000AF78601C
:104820000B467B807B687A88A3F840200C37BD4616
:104830005DF8047B704700BF80B483B000AF786040
:104840000B467B807B681B8B9BB223F00C039AB2D8
:104850007B681A837B681B8B9AB27B8813439AB25E
:104860007B681A830C37BD465DF8047B704700BF38
:1048700080B483B000AF78600B467B807B681B8B75
:104880009BB223F440639AB27B681A837B681B8BCC
:104890009AB27B881B029BB213439AB27B681A833D
:1048A0000C37BD465DF8047B704700BF80B483B011
:1048B00000AF78600B467B807B689B8B9BB223F0BC
:1048C0000C039AB27B689A837B689B8B9AB27B8835
:1048D00013439AB27B689A830C37BD465DF8047B1C
:1048E000704700BF80B483B000AF78600B467B8018
:1048F0007B689B8B9BB223F440639AB27B689A835C
:104900007B689B8B9AB27B881B029BB213439AB243
:104910007B689A830C37BD465DF8047B704700BF07
:1049200080B483B000AF78600B467B807B681B88C7
:104930009BB223F440739AB27B681A807B681B8811
:104940009AB27B8813439AB27B681A800C37BD46B3
:104950005DF8047B704700BF80B483B000AF78601F
:104960007B689B8E9BB218460C37BD465DF8047B76
:10497000704700BF80B483B000AF78607B681B8F46
:104980009BB218460C37BD465DF8047B704700BFEC
:1049900080B483B000AF78607B689B8F9BB2184671
:1049A0000C37BD465DF8047B704700BF80B483B010
:1049B00000AF78607B68B3F840309BB218460C3784
:1049C000BD465DF8047B704780B483B000AF78606B
:1049D0007B689B8C9BB218460C37BD465DF8047B08
:1049E000704700BF80B483B000AF78607B681B8DD8
:1049F0009BB218460C37BD465DF8047B704700BF7C
:104A000080B485B000AF78600B467B800023FB73D9
:104A10007B681B8A9AB27B8813409BB2002B02D022
:104A20000123FB7301E00023FB73FB7B1846143763
:104A3000BD465DF8047B704780B483B000AF7860FA
:104A40000B467B807B88DB439AB27B681A820C37EB
:104A5000BD465DF8047B704780B485B000AF7860D8
:104A60000B467B800023FB730023BB8100237B81EB
:104A70007B681B8A9AB27B881340BB817B689B89C9
:104A80009AB27B8813407B81BB89002B05D07B8940
:104A9000002B02D00123FB7301E00023FB73FB7B9F
:104AA00018461437BD465DF8047B704780B483B068
:104AB00000AF78600B467B807B88DB439AB27B68D3
:104AC0001A820C37BD465DF8047B704780B487B00E
:104AD00000AFF860084611461A4603467B810B4634
:104AE0003B811346FB800023BB820023FB82FB68D3
:104AF0001B8C9BB223F001039AB2FB681A84FB68FB
:104B00001B8BBB82FB681B8CFB82BB8A23F0F303ED
:104B1000BB82FB881B019AB23B8913439AB2BB8AC2
:104B20001343BB82FB681C4A934213D0FB681B4AA9
:104B300093420FD0FB68B3F1804F0BD0FB68184A4B
:104B4000934207D0FB68174A934203D0FB68164A8A
:104B500093420BD1FB8A23F00203FB827A89FB8A02
:104B600013439BB243F00103FB820AE0FB8A23F06C
:104B70000A03FB827A89FB8A13439BB243F0010349
:104B8000FB82FB68BA8A1A83FB68FA8A1A841C378C
:104B9000BD465DF8047B7047002C014000340140A5
:104BA0000004004000080040000C004080B487B0C2
:104BB00000AFF860084611461A4603467B810B4653
:104BC0003B811346FB800023BB820023FB82002332
:104BD0007B82FB681B8C9BB223F010039AB2FB68AC
:104BE0001A84FB681B8BBB82FB681B8CFB827B8956
:104BF0001B017B82BB8A23F440731B051B0DBB8208
:104C0000FB881B039AB2BB8A1343BB823B891B02FE
:104C10009AB2BB8A1343BB82FB681C4A934213D0EF
:104C2000FB681B4A93420FD0FB68B3F1804F0BD057
:104C3000FB68184A934207D0FB68174A934203D097
:104C4000FB68164A93420BD1FB8A23F02003FB82B8
:104C50007A8AFB8A13439BB243F01003FB820AE07B
:104C6000FB8A23F0A003FB827A89FB8A13439BB261
:104C700043F01003FB82FB68BA8A1A83FB68FA8A46
:104C80001A841C37BD465DF8047B7047002C014038
:104C9000003401400004004000080040000C0040C7
:104CA00080B487B000AFF860084611461A46034644
:104CB0007B810B463B811346FB800023BB82002394
:104CC000FB8200237B82FB681B8C9BB223F48073E6
:104CD0009AB2FB681A84FB689B8BBB82FB681B8CB7
:104CE000FB827B891B027B82BB8A23F0F303BB829E
:104CF000FB881B019AB23B8913439AB2BB8A1343C8
:104D0000BB82FB681C4A934213D0FB681B4A934248
:104D10000FD0FB68B3F1804F0BD0FB68184A934269
:104D200007D0FB68174A934203D0FB68164A9342A8
:104D30000BD1FB8A23F40073FB827A8AFB8A13432C
:104D40009BB243F48073FB820AE0FB8A23F4206366
:104D5000FB827A89FB8A13439BB243F48073FB8204
:104D6000FB68BA8A9A83FB68FA8A1A841C37BD46A4
:104D70005DF8047B704700BF002C01400034014007
:104D80000004004000080040000C004080B487B0E0
:104D900000AFF860084611461A4603467B810B4671
:104DA0003B811346FB800023BB820023FB82002350
:104DB0007B82FB681B8C9BB223F480539AB2FB6806
:104DC0001A84FB689B8BBB82FB681B8CFB827B89F4
:104DD0001B037B82BB8A23F440731B051B0DBB8224
:104DE0003B891B029AB2BB8A1343BB82FB881B031D
:104DF0009AB2BB8A1343BB82FB681D4A934213D00D
:104E0000FB681C4A93420FD0FB68B3F1804F0BD074
:104E1000FB68194A934207D0FB68184A934203D0B3
:104E2000FB68174A93420BD1FB8A23F40053FB82A1
:104E30007A8AFB8A13439BB243F48053FB820CE0D3
:104E4000FB8A23F400735B045B0CFB827A89FB8A88
:104E500013439BB243F48053FB82FB68BA8A9A8364
:104E6000FB68FA8A1A841C37BD465DF8047B7047DC
:104E7000002C0140003401400004004000080040C4
:104E8000000C0040ABBE01E000207047002A00D0BB
:104E900010600120704706980188034A914202D1B0
:104EA000043006907047FEE7ABBE000080B500AF4F
:104EB000FBF7F4F90F48FDF791FD4FF08040FEF746
:104EC00037F801200121FDF7EFFF0120FDF798FFE2
:104ED0000948FDF77FFF094B1B6818464FF4FA613C
:104EE000FBF7C8F9FEF7C0F80548FDF773FF184651
:104EF00080BD00BF005400401C500008C8040020C2
:104F00002C500008024B13B1024800F005B870475E
:104F100000000000254F000801460020024603461D
:104F200000F016B838B5084B084DED1AAC1018BF94
:104F3000ED1805D0013C55F8043D9847002CF9D1F7
:104F4000BDE8384000F05CB8600400206404002034
:104F50002DE9F047254C064625688846D5F8484196
:104F600092469946C4B360681F2817DC411C76B18D
:104F700004EB8003C3F888A0D4F888510122824052
:104F80001543022EC4F88851C3F808911ED0831C23
:104F90006160002044F82380BDE8F087144B03B320
:104FA0004FF4C870AFF300800446D0B1D5F8483153
:104FB000002784E888003846C5F848410121C4F834
:104FC0008871C4F88C71002EE1D0D1E7D4F88C310F
:104FD0001A43C4F88C21DAE705F5A674C5F84841F0
:104FE000C1E74FF0FF30BDE8F08700BF4050000838
:104FF00000000000F8B500BFF8BC08BC9E46704732
:10500000F8B500BFF8BC08BC9E467047000A1F1FD9
:105010000E040000000A15110A040000416C6477B8
:10502000696E20416B62617200000000416C647720
:10503000696E20416B6261722048000043000000ED
:04504000300000201C
:10504400000000000102030401020304060708092A
:105054000204060800A24A04000000000000000048
:105064000102030406070809080402010000000005
:10507400000000001C03002084030020EC03002037
:10508400000000000000000000000000000000001C
:10509400000000000000000000000000000000000C
:1050A400000000003C500008000000000000000068
:1050B40000000000000000000000000000000000EC
:1050C40000000000000000000000000000000000DC
:1050D40000000000000000000000000000000000CC
:1050E40000000000000000000000000000000000BC
:1050F40000000000000000000000000000000000AC
:10510400000000000000000000000000000000009B
:10511400000000000000000001000000000000008A
:105124000E33CDAB34126DE6ECDE05000B0000004F
:10513400000000000000000000000000000000006B
:10514400000000000000000000000000000000005B
:10515400000000000000000000000000000000004B
:10516400000000000000000000000000000000003B
:105494000000000000000000054F00083101000872
:0854A4000D01000800000000EA
:0400000508000000EF
:00000001FF
