:020000040800F2
:100000000050002089110008CD11000817210008B8
:10001000CD110008CD110008CD110008000000002E
:10002000000000000000000000000000CD110008EA
:10003000CD11000800000000CD110008CD1100080E
:10004000CD110008CD110008CD110008CD11000818
:10005000CD110008CD110008CD110008CD11000808
:10006000CD110008CD110008CD110008CD110008F8
:10007000CD110008CD110008CD110008CD110008E8
:10008000CD110008CD110008CD110008CD110008D8
:10009000CD110008CD110008CD110008CD110008C8
:1000A000CD110008CD110008CD110008CD110008B8
:1000B000CD110008CD110008CD110008CD110008A8
:1000C000CD110008CD110008CD110008CD11000898
:1000D000CD110008CD110008CD110008CD11000888
:1000E000CD110008CD110008CD110008CD11000878
:1000F000CD110008CD110008CD110008CD11000868
:10010000CD110008CD110008CD110008CD11000857
:10011000CD110008CD110008CD110008CD11000847
:10012000CD110008CD110008CD110008CD11000837
:1001300000000000000000000000000000000000BF
:1001400000000000000000000000000000000000AF
:10015000000000000000000000000000000000009F
:10016000000000000000000000000000000000008F
:10017000000000000000000000000000000000007F
:10018000000000000000000000000000000000006F
:10019000000000000000000000000000000000005F
:1001A000000000000000000000000000000000004F
:1001B000000000000000000000000000000000003F
:1001C000000000000000000000000000000000002F
:1001D000000000000000000000000000000000001F
:1001E0005FF8E0F110B5054C237833B9044B13B137
:1001F0000448AFF300800123237010BD6004002089
:1002000000000000EC240008084B10B51BB10848A2
:100210000849AFF300800848036803B910BD074BD5
:10022000002BFBD0BDE81040184700BF00000000C5
:10023000EC240008640400205C040020000000009E
:1002400080B400AF134A134B1B6843F001031360E3
:100250001049104B5A68104B13404B600D4A0D4B20
:100260001B6823F0847323F480331360094A094B1D
:100270001B6823F480231360064A064B5B6823F453
:10028000FE035360034B4FF41F029A60BD465DF8B6
:10029000047B7047001002400000FFF880B483B078
:1002A00000AF7860134A134B1B6823F4803313604C
:1002B000104A104B1B6823F4802313607B68B3F54E
:1002C000803F03D0B3F5802F07D00DE0094A094BDA
:1002D0001B6843F48033136006E0064A054B1B6835
:1002E00043F4A023136000BF0C37BD465DF8047BC8
:1002F000704700BF0010024080B582B000AF0023FD
:100300003B600023FB710023BB71312000F012FB26
:100310000346BB713B6801333B603B68B3F5A06F9C
:1003200002D0BB79002BF0D0312000F003FB034654
:10033000002B02D00123FB7101E00023FB71FB794C
:1003400018460837BD4680BD80B485B000AF03466F
:10035000FB710023FB600A4B1B68FB60FB6823F00A
:10036000F803FB60FB79DB00FA681343FB60044A87
:10037000FB6813601437BD465DF8047B704700BF0F
:100380000010024080B483B000AF0346FB71044A02
:10039000FB7913600C37BD465DF8047B704700BFE6
:1003A0000000424280B485B000AF7860396000231D
:1003B000FB600A4B5B68FB60FB6823F47C13FB600B
:1003C0007A683B681343FA681343FB60034AFB688F
:1003D00053601437BD465DF8047B7047001002403F
:1003E00080B483B000AF0346FB71044AFB7913600D
:1003F0000C37BD465DF8047B704700BF6000424289
:1004000080B485B000AF78600023FB60094B5B6867
:10041000FB60FB6823F00303FB60FA687B6813430F
:10042000FB60044AFB6853601437BD465DF8047BEB
:10043000704700BF0010024080B400AF054B5B68FE
:10044000DBB203F00C03DBB21846BD465DF8047B5B
:10045000704700BF0010024080B485B000AF7860E4
:100460000023FB60094B5B68FB60FB6823F0F00333
:10047000FB60FA687B681343FB60044AFB685360C7
:100480001437BD465DF8047B704700BF0010024082
:1004900080B485B000AF78600023FB60094B5B68D7
:1004A000FB60FB6823F4E063FB60FA687B6813433E
:1004B000FB60044AFB6853601437BD465DF8047B5B
:1004C000704700BF0010024080B485B000AF786074
:1004D0000023FB60094B5B68FB60FB6823F46053FF
:1004E000FB607B68DB00FA681343FB60034AFB6830
:1004F00053601437BD465DF8047B7047001002401E
:1005000080B483B000AF03460A46FB711346BB714B
:10051000BB79002B08D00C490B4B1B78DAB2FB7966
:100520001343DBB20B7009E00749074B1B78DAB2C3
:10053000FB79DB43DBB21340DBB20B700C37BD46FB
:100540005DF8047B704700BF0910024080B483B09F
:1005500000AF7860034A7B6813600C37BD465DF8D6
:10056000047B7047D800424280B485B000AF786009
:100570000023FB60094B5B68FB60FB6823F440438E
:10058000FB60FA687B681343FB60044AFB685360B6
:100590001437BD465DF8047B704700BF0010024071
:1005A00080B483B000AF0346FB710C4B00221A707D
:1005B0000A4B00221A70FB79012B02D0042B04D0C5
:1005C00007E0064B01221A7003E0044B05221A7063
:1005D00000BF0C37BD465DF8047B70472010024019
:1005E00080B483B000AF0346FB71044AFB7913600B
:1005F0000C37BD465DF8047B704700BF8004424263
:1006000080B483B000AF78600549054B1A6A7B68F7
:1006100013430B620C37BD465DF8047B704700BF87
:100620000010024080B483B000AF0346FB71044A5F
:10063000FB7913600C37BD465DF8047B704700BF43
:100640003C04424280B487B000AF786000237B61F5
:1006500000233B610023FB600023BB604D4B5B68C4
:1006600003F00C037B617B69042B07D0082B09D0B6
:10067000002B34D17B68484A1A6034E07B68464AD4
:100680001A6030E0434B5B6803F470133B61414BED
:100690005B6803F48033FB603B699B0C02333B6176
:1006A000FB68002B06D13B693C4A02FB03F27B68E6
:1006B0001A6013E0374B5B6803F40033002B06D05D
:1006C0003B69364A02FB03F27B681A6006E03B692D
:1006D000314A02FB03F27B681A6004E003E07B68A6
:1006E0002D4A1A6000BF2B4B5B6803F0F0037B615F
:1006F0007B691B097B612A4A7B6913441B78DBB247
:10070000BB607B681A68BB68DA407B685A60214B23
:100710005B6803F4E0637B617B691B0A7B61204AB1
:100720007B6913441B78DBB2BB607B685A68BB688B
:10073000DA407B689A60174B5B6803F460537B6117
:100740007B69DB0A7B61164A7B6913441B78DBB249
:10075000BB607B685A68BB68DA407B68DA600D4B27
:100760005B6803F440437B617B699B0B7B610D4AB3
:100770007B6913441B78DBB2BB607B68DA68BB68BB
:10078000B2FBF3F27B681A611C37BD465DF8047B4F
:10079000704700BF0010024000127A0000093D00BF
:1007A000000000201000002080B483B000AF78600B
:1007B0000B46FB70FB78002B06D00949084B5A69A1
:1007C0007B6813434B6106E00549054B5A697B681A
:1007D000DB4313404B610C37BD465DF8047B70472B
:1007E0000010024080B483B000AF78600B46FB700D
:1007F000FB78002B06D00949084B9A697B681343A4
:100800008B6106E00549054B9A697B68DB43134021
:100810008B610C37BD465DF8047B704700100240C9
:1008200080B483B000AF78600B46FB70FB78002B80
:1008300006D00949084BDA697B681343CB6106E0AF
:100840000549054BDA697B68DB431340CB610C3704
:10085000BD465DF8047B70470010024080B483B051
:1008600000AF78600B46FB70FB78002B06D009497F
:10087000084BDA687B681343CB6006E00549054BFB
:10088000DA687B68DB431340CB600C37BD465DF80C
:10089000047B70470010024080B483B000AF7860E2
:1008A0000B46FB70FB78002B06D00949084B1A69F0
:1008B0007B6813430B6106E00549054B1A697B68A9
:1008C000DB4313400B610C37BD465DF8047B70477A
:1008D0000010024080B483B000AF0346FB71044AAD
:1008E000FB7913600C37BD465DF8047B704700BF91
:1008F0004004424280B483B000AF0346FB71044A17
:10090000FB7913600C37BD465DF8047B704700BF70
:100910004C00424280B483B000AF0346FB71044AEE
:10092000FB7913700C37BD465DF8047B704700BF40
:100930000710024080B487B000AF0346FB7100236C
:10094000FB6000237B610023FB74FB795B09DBB256
:10095000FB60FB68012B03D1124B1B687B6109E034
:10096000FB68022B03D10F4B1B6A7B6102E00D4B2E
:100970005B6A7B61FB7903F01F03FB60FB687A69AC
:1009800022FA03F303F00103002B02D00123FB74CE
:1009900001E00023FB74FB7C18461C37BD465DF864
:1009A000047B70470010024080B400AF044A044B3F
:1009B0005B6A43F080735362BD465DF8047B704709
:1009C0000010024080B485B000AF0346FB710023E5
:1009D000FB73094B9A68FB791340002B02D001236B
:1009E000FB7301E00023FB73FB7B18461437BD4605
:1009F0005DF8047B704700BF0010024080B483B0F4
:100A000000AF0346FB71044AFB7913700C37BD46F7
:100A10005DF8047B704700BF0A10024080B582B0C9
:100A200000AF78607B682F4A934208D104200121EF
:100A3000FFF714FF04200021FFF710FF4EE07B6852
:100A4000294A934208D108200121FFF707FF082017
:100A50000021FFF703FF41E07B68244A934208D15D
:100A600010200121FFF7FAFE10200021FFF7F6FE0B
:100A700034E07B681E4A934208D120200121FFF711
:100A8000EDFE20200021FFF7E9FE27E07B68194AF0
:100A9000934208D140200121FFF7E0FE40200021D1
:100AA000FFF7DCFE1AE07B68134A934208D18020EE
:100AB0000121FFF7D3FE80200021FFF7CFFE0DE0DC
:100AC0007B680E4A934209D14FF480700121FFF7F1
:100AD000C5FE4FF480700021FFF7C0FE0837BD4609
:100AE00080BD00BF00080140000C01400010014023
:100AF0000014014000180140001C0140002001408A
:100B000080B500AF01200121FFF7A8FE01200021E0
:100B1000FFF7A4FE80BD00BF80B489B000AF78604D
:100B200039600023FB6100233B610023BB6100238C
:100B3000FB6000237B610023BB603B68DB7803F034
:100B40000F03FB613B68DB7803F01003002B05D03B
:100B50003B689B781A46FB691343FB613B681B8823
:100B6000DBB2002B44D07B681B687B610023BB6138
:100B700038E0BB69012202FA03F3FB603B681B8883
:100B80001A46FB6813403B613A69FB689A4226D1DA
:100B9000BB699B00FB60FB680F2202FA03F3BB609A
:100BA000BB68DB437A6913407B61FB68FA6902FA30
:100BB00003F37A6913437B613B68DB78282B05D10B
:100BC000BB6901229A407B685A6108E03B68DB7888
:100BD000482B04D1BB6901229A407B681A61BB692A
:100BE0000133BB61BB69072BC3D97B687A691A6083
:100BF0003B681B88FF2B4AD97B685B687B610023BD
:100C0000BB613EE0BB6908331A4601239340FB6099
:100C10003B681B881A46FB6813403B613A69FB68D6
:100C20009A422BD1BB699B00FB60FB680F2202FA42
:100C300003F3BB60BB68DB437A6913407B61FB68ED
:100C4000FA6902FA03F37A6913437B613B68DB7844
:100C5000282B07D1BB6908331A46012303FA02F295
:100C60007B685A613B68DB78482B07D1BB69083346
:100C70001A46012303FA02F27B681A61BB69013349
:100C8000BB61BB69072BBDD97B687A695A60243781
:100C9000BD465DF8047B704780B483B000AF7860D8
:100CA0007B684FF6FF721A807B6802229A707B681D
:100CB0000422DA700C37BD465DF8047B704700BF34
:100CC00080B485B000AF78600B467B800023FB7357
:100CD0007B689A687B881340002B02D00123FB734A
:100CE00001E00023FB73FB7B18461437BD465DF81B
:100CF000047B704780B483B000AF78607B689B68EA
:100D00009BB218460C37BD465DF8047B704700BFA8
:100D100080B485B000AF78600B467B800023FB7306
:100D20007B68DA687B881340002B02D00123FB73B9
:100D300001E00023FB73FB7B18461437BD465DF8CA
:100D4000047B704780B483B000AF78607B68DB6859
:100D50009BB218460C37BD465DF8047B704700BF58
:100D600080B483B000AF78600B467B807A887B6864
:100D70001A610C37BD465DF8047B704780B483B0C0
:100D800000AF78600B467B807A887B685A610C37AD
:100D9000BD465DF8047B704780B483B000AF7860D7
:100DA0000B467B8013467B707B78002B03D07A88C0
:100DB0007B681A6102E07A887B685A610C37BD460D
:100DC0005DF8047B704700BF80B483B000AF7860EB
:100DD0000B467B807A887B68DA600C37BD465DF80D
:100DE000047B704780B485B000AF78600B467B8091
:100DF0004FF48033FB607B88FA681343FB607B68A9
:100E0000FA689A617A887B689A617B68FA689A6165
:100E10007B689B69FB607B689B69FB601437BD4600
:100E20005DF8047B704700BF80B485B000AF034617
:100E30000A46FB711346BB710023FB600C4B1B6819
:100E4000FB60FA684FF680731340FB60FB791B016F
:100E5000FA681343FB60BB79FA681343FB60044AEA
:100E6000FB6813601437BD465DF8047B704700BF14
:100E70000000014080B483B000AF0346FB71044A18
:100E8000FB7913600C37BD465DF8047B704700BFEB
:100E90001C00204280B487B000AF78600B46FB7026
:100EA00000233B610023FB6000237B610023BB60C8
:100EB0007B68002B03DA2E4BDB697B6102E02C4B55
:100EC0005B687B617B6803F470231B0CBB607B68F1
:100ED0009BB23B617B6803F44013B3F5401F0AD11A
:100EE0007B6923F070637B61214A214B5B6823F0AF
:100EF0007063536021E07B6803F48013002B0ED0F5
:100F0000BB68032202FA03F3FB60FB68DB437A69E8
:100F100013407B617B6943F070637B610DE07B680C
:100F20005B0D1B011A463B699340DB437A69134012
:100F30007B617B6943F070637B61FB78002B08D099
:100F40007B685B0D1B011A463B6993407A6913432A
:100F50007B617B68002B03DA054A7B69D36102E081
:100F6000034A7B6953601C37BD465DF8047B7047BC
:100F70000000014090B484B000AF03460A46FB7104
:100F80001346BB710023FB60BB7903F003039B0096
:100F90000F2202FA03F3FB601649BB799B08DBB210
:100FA0001846144ABB799B08DBB2023352F823205F
:100FB000FB68DB431A40831C41F823200D48BB79B2
:100FC0009B08DBB21C460B4ABB799B08DBB20233A1
:100FD00052F82320F979BB7903F003039B0001FA4F
:100FE00003F31A43A31C40F823201037BD4690BCDE
:100FF000704700BF0000014080B483B000AF78604C
:10100000034A7B6813600C37BD465DF8047B70476C
:10101000DC00204280B500AF08200121FFF7E2FB91
:1010200001200121FFF7DEFB4FF400100121FFF743
:10103000F7FB154B154A1A60134B00229A80124B8E
:101040004BF6FF72DA80104B15221A810E4B4FF4CB
:1010500080625A810C4B4FF480429A810C480A49B5
:1010600000F08AFB0B4BC0221A800A4B1C22DA705C
:10107000084B03229A7008480649FFF74DFD0448C3
:10108000012100F059FC80BD7C040020A0860100F5
:10109000005400408C040020000C014080B582B058
:1010A00000AF78600B46FB701346BB7000BF7868DA
:1010B0004FF4003100F05CFF0346002BF7D1786855
:1010C000012100F099FC00BF7868144900F0FEFE91
:1010D0000346002BF8D0BB785B00DAB2FB78786867
:1010E00011461A4600F08AFDFB78002B07D100BF9D
:1010F00078680B4900F0EAFE0346002BF8D0FB7835
:10110000012B07D100BF7868064900F0DFFE0346D7
:10111000002BF8D00837BD4680BD00BF010003009A
:10112000820007000200030080B582B000AF786043
:101130000B46FB70FB787868194600F041FD00BF54
:101140007868044900F0C2FE0346002BF8D0083747
:10115000BD4680BD8400070080B584B000AF7860D4
:1011600000BF7868074900F0B1FE0346002BF8D0B5
:10117000786800F035FD0346FB73FB7B184610379B
:10118000BD4680BD40000300002103E00A4B5B58D0
:101190004350043109480A4B42189A42F6D3094A8F
:1011A00002E0002342F8043B074B9A42F9D300F0D7
:1011B000BDFF01F0E3F87047EC24000800000020B8
:1011C000600400206004002098040020FEE7000076
:1011D00080B582B000AF0346FB71FB791846012150
:1011E00000F0ECF90837BD4680BD00BF80B582B085
:1011F00000AF0346FB710B46BB7113467B710D4A72
:10120000FB7913700B4ABB7953710A4A7B7993714E
:10121000084B0022DA71FFF7FDFE064B00225A70E0
:10122000BA797B791046194600F006F80837BD46B2
:1012300080BD00BF9004002080B582B000AF03469F
:101240000A46FB711346BB71BB79012B06D9264BAD
:101250005B7843F00803DAB2234B5A70224ABB7919
:101260001371322000F012FF1F4BDB79184600F09B
:10127000D5F94FF47A7000F009FF302000F0BEF984
:1012800041F2941000F020FF302000F0B7F941F255
:10129000941000F019FF302000F0B0F9962000F013
:1012A00013FF202000F0AAF90F4B5B7843F02003D6
:1012B000DBB2184600F074F90B4B04229A7000F070
:1012C0006FF800F013F8084B0222DA70064BDB7857
:1012D00043F00403DBB2184600F062F900F010F8A6
:1012E0000837BD4680BD00BF9004002080B500AF28
:1012F000012000F055F940F6B83000F0E5FE80BD61
:1013000080B500AF022000F04BF940F6B83000F095
:10131000DBFE80BD90B587B000AF03460A46FB7187
:101320001346BB71124B07F108040FCB84E80F0082
:10133000104B1B79BA799A4203D90E4B1B79013BAA
:10134000BB71BB799B0007F11802134453F8103CA2
:10135000DAB2FB791344DBB2DBB263F07F03DBB2BA
:10136000DBB2184600F01CF91C37BD4690BD00BF2B
:10137000C82400089004002080B500AF074B9B787C
:1013800023F00403DAB2054B9A70044B9B7843F0C8
:101390000803DBB2184600F003F980BD900400207A
:1013A00080B500AF074B9B7843F00403DAB2054BDE
:1013B0009A70044B9B7843F00803DBB2184600F0A8
:1013C000EFF880BD9004002080B500AF074B9B78FC
:1013D00023F00203DAB2054B9A70044B9B7843F07A
:1013E0000803DBB2184600F0DBF880BD9004002053
:1013F00080B500AF074B9B7843F00203DAB2054B90
:101400009A70044B9B7843F00803DBB2184600F057
:10141000C7F880BD9004002080B500AF074B9B78D3
:1014200023F00103DAB2054B9A70044B9B7843F02A
:101430000803DBB2184600F0B3F880BD900400202A
:1014400080B500AF074B9B7843F00103DAB2054B40
:101450009A70044B9B7843F00803DBB2184600F007
:101460009FF880BD9004002080B500AF182000F0E8
:1014700097F880BD80B500AF1C2000F091F880BDCA
:1014800080B500AF074BDB7843F00203DAB2054BBF
:10149000DA70044BDB7843F00403DBB2184600F04B
:1014A0007FF880BD9004002080B500AF074BDB784B
:1014B00023F00203DAB2054BDA70044BDB7843F019
:1014C0000403DBB2184600F06BF880BD90040020E6
:1014D00080B500AF074BDB7843F00103DAB2054B70
:1014E000DA70044BDB7843F00403DBB2184600F0FB
:1014F00057F880BD9004002080B500AF074BDB7823
:1015000023F00103DAB2054BDA70044BDB7843F0C9
:101510000403DBB2184600F043F880BD90040020BD
:1015200080B584B000AF03463960FB71FB7903F0EE
:101530000703FB71FB79DB00DBB243F04003DBB256
:10154000DBB2184600F02CF80023FB6009E0FB68D2
:101550003A6813441B781846FFF73AFEFB680133DC
:10156000FB60FB68072BF2DD1037BD4680BD00BF76
:1015700080B500AF034B0022DA71002000F04EF876
:1015800080BD00BF9004002080B500AF034B08224F
:10159000DA71002000F042F880BD00BF9004002006
:1015A00080B582B000AF0346FB71FB79184600217D
:1015B00000F004F80837BD4680BD00BF80B584B098
:1015C00000AF03460A46FB711346BB71FB7923F05B
:1015D0000F03FB73FB791B01BB73FA7BBB791343CE
:1015E000DBB2184600F00AF8BA7BBB791343DBB2D2
:1015F000184600F003F81037BD4680BD80B582B0B4
:1016000000AF0346FB71FB79184600F007F8FB7941
:10161000184600F023F80837BD4680BD80B582B07B
:1016200000AF0346FB710B4B1B780B4800211A4699
:10163000FFF734FD074BDA79FB791343DBB2064839
:101640001946FFF771FD0448012100F0F5F908374C
:10165000BD4680BD900400200054004080B582B09B
:1016600000AF0346FB71FB7943F00403DBB218467D
:10167000FFF7D4FF012000F027FDFB7923F00403DE
:10168000DBB21846FFF7CAFF322000F01DFD083715
:10169000BD4680BD80B500AFFFF7AAFE80BD00BF8C
:1016A00080B500AFFFF790FE80BD00BF80B500AFF2
:1016B000FFF7C6FE80BD00BF80B500AFFFF7ACFEF0
:1016C00080BD00BF80B582B000AF03463960FB71BA
:1016D000FB7918463968FFF723FF0837BD4680BD00
:1016E00080B582B000AF0346FB71FB79002B02D0BE
:1016F000FFF74AFF01E0FFF73BFF0837BD4680BD1B
:1017000080B584B000AF78600023FB7309E0FB7BF9
:101710007A6813441B781846FFF75AFDFB7B0133A8
:10172000FB73FB7B7A6813441B78002BEFD11037D7
:10173000BD4680BD80B582B000AF78607B680D4A41
:1017400093420AD14FF400100121FFF7A5F84FF49E
:1017500000100021FFF7A0F809E04FF480000121FC
:10176000FFF79AF84FF480000021FFF795F808374B
:10177000BD4680BD0054004080B58AB000AF78609F
:1017800039600023FB8400237B840423BB84574BF4
:10179000FB617B689B88FB84FB8C23F03F03FB840D
:1017A00007F108031846FEF74DFF3B69FB61FB6933
:1017B0004F4AA2FB03239B0C7B84FA8C7B8C134344
:1017C000FB847B68FA8C9A807B681B889BB223F031
:1017D00001039AB27B681A800023FB843B681B6874
:1017E000444A934215D83B681B685B00FA69B2FB18
:1017F000F3F3BB84BB8C032B01D80423BB84FA8C8A
:10180000BB8C1343FB847B8C01339AB27B681A84B4
:1018100040E03B68DB884BF6FF72934209D13B689E
:101820001A6813465B001344FA69B2FBF3F3BB84F6
:101830000EE03B681A6813469B0013449A00134459
:10184000FA69B2FBF3F3BB84BB8C43F48043BB84E3
:10185000BB8CC3F30B03002B03D1BB8C43F0010300
:10186000BB84BA8CFB8C13439BB26FEA43436FEA91
:101870005343FB847B8C4FF4967202FB03F31E4AA6
:1018800082FB03129211DB17D31A9BB201339AB277
:101890007B681A847B68FA8C9A837B681B889BB26E
:1018A00043F001039AB27B681A807B681B88FB8433
:1018B000FB8C23F4816323F00203FB843B689A884A
:1018C0003B685B8913439AB2FB8C1343FB847B68B0
:1018D000FA8C1A803B689A893B681B8913439AB239
:1018E0007B681A812837BD4680BD00BF00127A0090
:1018F00083DE1B43A0860100D34D621080B483B009
:1019000000AF78607B6841F288321A607B68002201
:101910009A807B684BF6FF72DA807B6800221A811E
:101920007B6800225A817B684FF480429A810C3791
:10193000BD465DF8047B704780B483B000AF78602B
:101940000B46FB70FB78002B08D07B681B889BB292
:1019500043F001039AB27B681A8007E07B681B881A
:101960009BB223F001039AB27B681A800C37BD4604
:101970005DF8047B704700BF80B483B000AF78602F
:101980000B46FB70FB78002B08D07B689B889BB2D2
:1019900043F400639AB27B689A8007E07B689B8877
:1019A0009BB223F400639AB27B689A800C37BD46E1
:1019B0005DF8047B704700BF80B483B000AF7860EF
:1019C0000B46FB70FB78002B08D07B689B889BB292
:1019D00043F480539AB27B689A8007E07B689B88C7
:1019E0009BB223F480539AB27B689A800C37BD4631
:1019F0005DF8047B704700BF80B483B000AF7860AF
:101A00000B46FB70FB78002B08D07B681B889BB2D1
:101A100043F480739AB27B681A8007E07B681B8866
:101A20009BB223F480739AB27B681A800C37BD4650
:101A30005DF8047B704700BF80B483B000AF78606E
:101A40000B46FB70FB78002B08D07B681B889BB291
:101A500043F400739AB27B681A8007E07B681B88A6
:101A60009BB223F400739AB27B681A800C37BD4690
:101A70005DF8047B704700BF80B483B000AF78602E
:101A80000B46FB70FB78002B08D07B681B889BB251
:101A900043F480639AB27B681A8007E07B681B88F6
:101AA0009BB223F480639AB27B681A800C37BD46E0
:101AB0005DF8047B704700BF80B485B000AF7860EC
:101AC0000B46FB700023FB817B689B89FB81FB89B4
:101AD00023F0FE03FB81FB789BB203F0FE039AB276
:101AE000FB8913439BB2FB817B68FA899A81143787
:101AF000BD465DF8047B704780B483B000AF78606A
:101B00000B46FB70FB78002B08D07B689B899BB24F
:101B100043F001039AB27B689A8107E07B689B8956
:101B20009BB223F001039AB27B689A810C37BD46C1
:101B30005DF8047B704700BF80B483B000AF78606D
:101B40000B46FB70FB78002B08D07B681B889BB290
:101B500043F040039AB27B681A8007E07B681B88D9
:101B60009BB223F040039AB27B681A800C37BD46C3
:101B70005DF8047B704700BF80B483B000AF78602D
:101B80000B467B8013467B707B78002B08D07B68EC
:101B90009B889AB27B8813439AB27B689A8009E04B
:101BA0007B689B889AB27B88DB439BB213409AB2D6
:101BB0007B689A800C37BD465DF8047B704700BF98
:101BC00080B483B000AF78600B46FB70FB789AB2AC
:101BD0007B681A820C37BD465DF8047B704700BFF6
:101BE00080B483B000AF78607B681B8A9BB2DBB2A5
:101BF00018460C37BD465DF8047B704780B483B04F
:101C000000AF78600B46FB701346BB70BB78002BAF
:101C100004D0FB7843F00103FB7003E0FB7823F072
:101C20000103FB70FB789AB27B681A820C37BD46C1
:101C30005DF8047B704700BF80B485B000AF78606A
:101C40000B46FB700023FB607B68FB60FA78FB6847
:101C50001344FB60FB681B889BB218461437BD46D3
:101C60005DF8047B704700BF80B483B000AF78603C
:101C70000B46FB70FB78002B0AD07B681B889BB25D
:101C80006FEA43436FEA53439AB27B681A8007E0D6
:101C90007B681B889BB2C3F30E039AB27B681A80E1
:101CA0000C37BD465DF8047B704700BF80B483B03D
:101CB00000AF78600B467B807B88B3F5006F08D15E
:101CC0007B681B889BB243F400639AB27B681A80DE
:101CD00007E07B681B889BB223F400639AB27B68A1
:101CE0001A800C37BD465DF8047B704780B483B022
:101CF00000AF78600B467B807B88B3F5005F08D12E
:101D00007B681B889BB243F400539AB27B681A80AD
:101D100007E07B681B889BB223F400539AB27B6870
:101D20001A800C37BD465DF8047B704780B483B0E1
:101D300000AF78600B46FB70FB78002B08D07B6807
:101D40001B889BB243F480539AB27B681A8007E0E9
:101D50007B681B889BB223F480539AB27B681A80FD
:101D60000C37BD465DF8047B704700BF80B483B07C
:101D700000AF78600B467B807B88B3F5006F08D19D
:101D80007B681B889BB243F400639AB27B681A801D
:101D900007E07B681B889BB223F400639AB27B68E0
:101DA0001A800C37BD465DF8047B704780B483B061
:101DB00000AF78600B46FB70FB78002B08D07B6887
:101DC0001B889BB243F020039AB27B681A8007E01D
:101DD0007B681B889BB223F020039AB27B681A8031
:101DE0000C37BD465DF8047B704700BF80B483B0FC
:101DF00000AF78607B681B8B9BB21B0A9BB2DBB287
:101E000018460C37BD465DF8047B704780B483B03C
:101E100000AF78600B46FB70FB78002B08D07B6826
:101E20001B889BB243F010039AB27B681A8007E0CC
:101E30007B681B889BB223F010039AB27B681A80E0
:101E40000C37BD465DF8047B704700BF80B483B09B
:101E500000AF78600B46FB70FB78002B08D17B68E5
:101E60001B889BB243F080039AB27B681A8007E01C
:101E70007B681B889BB223F080039AB27B681A8030
:101E80000C37BD465DF8047B704700BF80B483B05B
:101E900000AF78600B467B807B88B3F5804F08D01D
:101EA0007B689B8B9BB223F480439AB27B689A83B6
:101EB00007E07B689B8B9BB243F480439AB27B68BC
:101EC0009A830C37BD465DF8047B704780B487B0B9
:101ED00000AF7860396000233B610023FB60002382
:101EE000BB600023FB757B689B8A9BB2FB607B68B1
:101EF0001B8B9BB2BB60BB681B04BB60FA68BB68F2
:101F0000134323F07F433B613A693B681A403B68C7
:101F10009A4202D10123FB7501E00023FB75FB7D92
:101F200018461C37BD465DF8047B704780B487B007
:101F300000AF786000237B6100233B610023FB60DE
:101F40007B689B8A9BB23B617B681B8B9BB2FB606F
:101F5000FB681B04FB603A69FB68134323F07F4373
:101F60007B617B6918461C37BD465DF8047B704772
:101F700080B487B000AF786039600023FB75002320
:101F80003B610023FB607B68FB603B681B0F3B6190
:101F90003B6823F07F433B603B69002B03D0FB6829
:101FA0001433FB6005E03B681B0C3B60FB68183397
:101FB000FB60FB681A683B681340002B02D00123CA
:101FC000FB7501E00023FB75FB7D18461C37BD4601
:101FD0005DF8047B704700BF80B485B000AF7860C7
:101FE00039600023FB603B6823F07F43FB60FB68A4
:101FF0009BB2DB439AB27B689A821437BD465DF888
:10200000047B704780B485B000AF786039600023EE
:10201000FB730023BB603B6803F0E0631B0C7A6832
:10202000928892B21340BB603B6823F07F433B60D1
:102030007B689B8A9BB21A463B681340002B05D0F5
:10204000BB68002B02D00123FB7301E00023FB736C
:10205000FB7B18461437BD465DF8047B704700BF14
:1020600080B485B000AF786039600023FB603B68C6
:1020700023F07F43FB60FB689BB2DB439AB27B6833
:102080009A821437BD465DF8047B704780B588B0EE
:1020900000AF786007F108031846FEF7D3FAFB6833
:1020A000084AA2FB03235B0B7A6802FB03F3FB6184
:1020B00002E0FB69013BFB61FB69002BF9D1203792
:1020C000BD4680BD5917B7D180B588B000AF7860E4
:1020D00007F108031846FEF7B5FAFB68084AA2FBA9
:1020E00003239B0D7A6802FB03F3FB6102E0FB69AB
:1020F000013BFB61FB69002BF9D12037BD4680BD58
:102100006BCA5F6BABBE01E000207047002A00D0B5
:1021100010600120704706980188034A914202D15D
:10212000043006907047FEE7ABBE000080B500AFFC
:10213000154A154B1B6843F0010313601249124BFB
:102140005A68124B13404B600F4A0F4B1B6823F029
:10215000847323F4803313600B4A0B4B1B6823F406
:1021600080231360084A084B5B6823F4FE03536026
:10217000054B4FF41F029A6000F07AF8044B4FF0C1
:1021800000629A6080BD00BF001002400000FFF8AE
:1021900000ED00E080B485B000AF0023FB600023B9
:1021A000BB6000237B602D4B5B6803F00C03FB607E
:1021B000FB68042B07D0082B09D0002B34D1284B07
:1021C000284A1A6034E0264B264A1A6030E0234B36
:1021D0005B6803F47013BB60204B5B6803F48033CF
:1021E0007B60BB689B0C0233BB607B68002B06D115
:1021F000BB681D4A02FB03F3194A136013E0174B37
:102200005B6803F40033002B06D0BB68164A02FB60
:1022100003F3134A136006E0BB68124A02FB03F3A0
:102220000F4A136004E003E00D4B0E4A1A6000BF32
:102230000A4B5B6803F0F0031B090C4AD35CDBB26A
:10224000FB60074B1A68FB6822FA03F3044A136029
:102250001437BD465DF8047B704700BF0010024094
:102260001400002000127A0000093D001800002030
:1022700080B500AF00F002F880BD00BF80B483B02D
:1022800000AF00237B6000233B603A4A394B1B6858
:1022900043F480331360374B1B6803F400333B6017
:1022A0007B6801337B603B68002B03D17B68B3F50F
:1022B000A06FF0D12F4B1B6803F40033002B02D02A
:1022C00001233B6001E000233B603B68012B4BD1C5
:1022D000294A294B1B6843F010031360264A264BFA
:1022E0001B6823F003031360234A234B1B6843F04E
:1022F000020313601F4A1F4B5B6853601D4A1D4B4E
:102300005B6853601B4A1B4B5B6843F480635360FC
:10231000184A184B5B6823F47C135360154A154B1D
:102320005B6843F4E8135360124A124B1B6843F096
:102330008073136000BF0F4B1B6803F00073002B0A
:10234000F9D00C4A0B4B5B6823F003035360094A36
:10235000084B5B6843F00203536000BF054B5B68AA
:1023600003F00C03082BF9D10C37BD465DF8047B54
:10237000704700BF001002400020024080B500AF4F
:1023800040F6B830FFF782FE272010210222FEF728
:102390002DFFFFF719F8FFF773F8FFF7F5F84FF483
:1023A000FA60FFF773FEFEF7A1FF01200121FEF79F
:1023B000B1FF0248FFF7A4F9184680BDD8240008F1
:1023C000024B13B1024800F005B87047000000004E
:1023D000E1230008014600200246034600F016B83B
:1023E00038B5084B084DED1AAC1018BFED1805D0E4
:1023F000013C55F8043D9847002CF9D1BDE8384020
:1024000000F05CB8580400205C0400202DE9F0477F
:10241000254C064625688846D5F848419246994697
:10242000C4B360681F2817DC411C76B104EB80033D
:10243000C3F888A0D4F88851012282401543022EA7
:10244000C4F88851C3F808911ED0831C6160002035
:1024500044F82380BDE8F087144B03B34FF4C870F1
:10246000AFF300800446D0B1D5F84831002784E8A6
:1024700088003846C5F848410121C4F88871C4F87D
:102480008C71002EE1D0D1E7D4F88C311A43C4F816
:102490008C21DAE705F5A674C5F84841C1E74FF08D
:1024A000FF30BDE8F08700BFE8240008000000000E
:1024B000F8B500BFF8BC08BC9E467047F8B500BF31
:1024C000F8BC08BC9E4670470000000040000000B9
:1024D0001400000054000000416C6477696E416B89
:0C24E00000000000430000002800002065
:1024EC0000000000010203040102030406070809AE
:1024FC000204060800A24A040000000000000000CC
:10250C000102030406070809000000001403002060
:10251C007C030020E4030020000000000000000009
:10252C00000000000000000000000000000000009F
:10253C00000000000000000000000000E42400087F
:10254C00000000000000000000000000000000007F
:10255C00000000000000000000000000000000006F
:10256C00000000000000000000000000000000005F
:10257C00000000000000000000000000000000004F
:10258C00000000000000000000000000000000003F
:10259C00000000000000000000000000000000002F
:1025AC00000000000000000000000000000000001F
:1025BC0001000000000000000E33CDAB34126DE6BC
:1025CC00ECDE05000B000000000000000000000025
:1025DC0000000000000000000000000000000000EF
:1025EC0000000000000000000000000000000000DF
:1025FC0000000000000000000000000000000000CF
:10260C0000000000000000000000000000000000BE
:10293C00C123000809020008E5010008000000009E
:0400000508000000EF
:00000001FF
